:020000040800F2
:1000000048870020A5120008510300089D01000840
:100010002108000825080008290800080000000041
:10002000000000000000000000000000B101000816
:100030002D08000800000000050200084D07000818
:10004000BF120008BF120008BF120008BF1200084C
:10005000BF120008BF1200087309000883090008D6
:1000600093090008A3090008B3090008BF1200089B
:10007000BF120008BF120008BF120008BF1200081C
:10008000BF120008BF120008BF120008BF1200080C
:10009000BF120008BF120008BF120008CB090008F9
:1000A000BF120008BF120008BF120008BF120008EC
:1000B000BF120008BF120008BF120008BF120008DC
:1000C000BF120008BF120008BF120008BF120008CC
:1000D000BF1200080110000835110008A10E000829
:1000E000430A0008BF120008BF120008BF12000830
:1000F000BF120008BF120008BF120008BF1200089C
:10010000BF120008BF120008BF120008BF1200088B
:10011000FD0C0008BF120008BF120008210B0008E8
:10012000BF120008BF120008BF120008BF1200086B
:10013000BF120008BF120008BF120008BF1200085B
:10014000BF120008BF120008BF120008BF1200084B
:10015000BF1200082F080008BF120008BF120008D5
:10016000BF120008BF120008BF120008BF1200082B
:10017000BF120008BF120008BF120008BF1200081B
:10018000BF120008BF120008DFF80CD006F0AEFB6B
:1001900000480047D7020008488700201EF0040FDF
:1001A0000CBFEFF30880EFF3098000F0E8BA00001D
:1001B0002A4B19680868B0E8F04F80F30988BFF34C
:1001C0006F8F4FF0000080F311887047000000002F
:1001D00006480068006880F3088862B661B6BFF31D
:1001E0004F8FBFF36F8F00DF00BF00BF08ED00E04F
:1001F000DFF80C00016841F470010160704700BF36
:1002000088ED00E0EFF30980BFF36F8F134B1A689E
:100210001EF0100F08BF20ED108A20E9F04F10608B
:1002200008B44FF0500080F31188BFF34F8FBFF335
:100230006F8F03F096FF4FF0000080F3118808BC29
:1002400019680868B0E8F04F1EF0100F08BFB0EC56
:10025000108A80F30988BFF36F8F70474C0000202D
:10026000EFF30580704700001CB504460121080328
:1002700001F0BEFB05F09FF9002003210346962202
:10028000CDE9001020A1224803F070FC00200321DA
:1002900003469622CDE900101EA1214803F066FC1A
:1002A000002004210346C822CDE900101DA11F48EB
:1002B00003F05CFC002004210346C822CDE90010B5
:1002C0001BA11E4803F052FC1D48006803F09CFC73
:1002D00005F080F91CBD1CB500F0B6FF18480121DF
:1002E0000023FA22CDE9001016A1AFF2830003F03B
:1002F0003DFC04F08CF800201CBD10B500F034FA71
:10030000044630BF10BD00004D41534C494E4B00D8
:100310000F610008434F4D4D414E444552000000CF
:10032000D75A000841544B5000000000C35C00083D
:10033000524144494F4C494E4B000000375D000884
:100340000400002073746172745F7461736B000049
:10035000704700000CB500200190009076480068BE
:1003600040F480307449086000BF7348006800F4AE
:10037000003000900198401C0190009818B9019835
:10038000B0F5A04FF1D16C48006800F4003010B116
:100390000120009001E0002000900098012846D143
:1003A00065484030006840F0805063494031086043
:1003B0006248006840F44040604908605E48083088
:1003C00000685D49083108600846006840F4004054
:1003D00008600846006840F4A05008605848091FAB
:1003E0000860081F006840F08070091F086000BFA7
:1003F0005148006800F000700028F9D040F2057004
:10040000504908604C480830006820F003004A4911
:10041000083108600846006840F00200086000BF2C
:1004200045480830006800F00C000828F8D10CBDE1
:1004300010B54548006840F47000434908603E48E4
:10044000006840F001003C49086000203A4908314A
:100450000860394800683D490840374908603C4811
:10046000091D0860081F006820F48020091F08602B
:10047000002031490C310860FFF76CFF4FF000603D
:1004800031498039086010BD70B500200022022378
:1004900000240221284D08352D6805F00C0020B1FC
:1004A000042806D0082834D107E02A4D2A4E3560AA
:1004B00033E02A4D284E35602FE01F4D2D1D2D684D
:1004C000C5F380541C4D2D1D2D6805F03F0154B11E
:1004D000224DB5FBF1F5184E361D3668C6F3881669
:1004E00005FB06F209E01B4DB5FBF1F5124E361D7A
:1004F0003668C6F3881605FB06F20F4D2D1D2D68D4
:10050000C5F301456D1C6B00B2FBF3F5124E35606F
:1005100003E0104D104E356000BF00BF064D08359A
:100520002D68C5F303150E4E705D0B4D2D68C5404B
:10053000094E356070BD0000003802400070004078
:1005400008544007003C024088ED00E0FFFFF6FE43
:10055000103000240024F4000800002000127A006B
:100560000C0000201CB50121502001F041FA182098
:10057000009001208DF8040000208DF806008DF811
:10058000070003208DF8050069460A4800F092FF35
:100590004FF4007000906946074800F08BFF4FF45D
:1005A0000071054801F002F81821024800F0FEFF32
:1005B0001CBD000000100240001802401CB50121C3
:1005C000402001F015FA8020009001208DF80400F1
:1005D00000208DF8060003208DF8050002208DF81C
:1005E00007006946034800F065FF8021014800F0DC
:1005F000DFFF1CBD001802401CB50121182001F0CE
:10060000F7F94CF20300009001208DF8040000205F
:100610008DF8060003208DF8050002208DF80700F4
:100620006946454800F046FF4FF4F0600090694687
:10063000424800F03FFF01213F4800F0B9FF02218E
:100640003D4800F0B5FF4FF480413B4800F0B0FF5B
:100650004FF40041384800F0ABFF8021374800F0EC
:10066000A7FF4FF48071354800F0A2FF4FF40071EE
:10067000324800F09DFF4FF48061304800F098FF51
:100680001CBD10B50446207820B102212A4800F094
:100690008DFF03E00221284800F08AFF10BD10B54D
:1006A0000446207820B10121234800F07FFF03E0B9
:1006B0000121214800F07CFF10BD10B504462078D0
:1006C00028B14FF480711D4800F070FF04E04FF432
:1006D00080711A4800F06CFF10BD10B504462078F8
:1006E00020B18021154800F061FF03E0802113480C
:1006F00000F05EFF10BD10B50446207828B14FF41D
:1007000080610E4800F052FF04E04FF480610B4816
:1007100000F04EFF10BD10B50446207828B14FF40C
:100720000071064800F042FF04E04FF400710348F6
:1007300000F03EFF10BD0000000C0240001002401F
:1007400010B54FF4407000F0BFFD10BD10B504F0BF
:10075000B2F8012802D004F04BFF04E034480068EE
:10076000401C3349086010BD10B504F0A4F80128FE
:1007700002D003F085FE10BD2D480068FBE708B5E8
:10078000044625686668A768D4F80C80D4F81090F1
:10079000D4F814A0D4F818B0E069009025A006F0B1
:1007A000C7F8294629A006F0C3F831462AA006F06A
:1007B000BFF839462BA006F0BBF841462CA006F046
:1007C000B7F849462DA006F0B3F851462EA006F022
:1007D000AFF859462FA006F0ABF831A0009906F00B
:1007E000A7F83248016832A006F0A2F82F48103866
:1007F000016832A006F09CF82C480C38016832A041
:1008000006F096F829480838016832A006F090F8FA
:100810002648001D016832A006F08AF800BFFEE7F6
:1008200000BFFEE700BFFEE700BFFEE7704770476E
:100830001C0000205B48617264206661756C742046
:1008400068616E646C65725D0A0000005230203D84
:100850002025780A000000005231203D2025780A2A
:10086000000000005232203D2025780A00000000E0
:100870005233203D2025780A0000000052313220FA
:100880003D2025780A0000004C52203D2025780AA2
:10089000000000005043203D2025780A00000000A1
:1008A000505352203D2025780A00000038ED00E02A
:1008B00042464152203D2025780A000043465352CB
:1008C000203D2025780A000048465352203D20252F
:1008D000780A000044465352203D2025780A000043
:1008E00041465352203D2025780A000010B50121D1
:1008F000880301F08EF80020744988700120C870C8
:100900000520487006200870084600F0E2FC0C2024
:100910006E49487007200870084600F0DAFC0C2089
:100920006A49487008200870084600F0D2FC0C2084
:100930006649487009200870084600F0CAFC0C207F
:10094000624948700A200870084600F0C2FC0C207A
:100950005E49487017200870084600F0BAFC0A206B
:100960005A49487028200870084600F0B2FC10BDB3
:10097000704710B5012002F08AFAFFF7F9FF10BDA9
:10098000704710B5022002F082FAFFF7F9FF10BDA0
:10099000704710B5042002F07AFAFFF7F9FF10BD96
:1009A000704710B5082002F072FAFFF7F9FF10BD8A
:1009B000704710B5102002F06AFAFFF7F9FF10BD7A
:1009C0007047704770477047704710B5202002F09D
:1009D00053FA012804D1202002F059FAFFF7F4FF5E
:1009E000402002F049FA012804D1402002F04FFAD9
:1009F000FFF7E9FF802002F03FFA012804D18020B0
:100A000002F045FAFFF7DEFF4FF4807002F034FA8F
:100A1000012804D1000202F03AFAFFF7D2FF4FF4A6
:100A2000007002F029FA012804D1400202F02FFAE6
:100A3000FFF7C6FF10BD704770477047704770479B
:100A4000704710B54FF4806002F016FA012804D107
:100A5000800202F01CFAFFF7F3FF4FF4006002F08F
:100A60000BFA012804D1C00202F011FAFFF7E7FFE8
:100A70004FF4805002F000FA012804D1000302F084
:100A800006FAFFF7DBFF4FF4005002F0F5F90128FA
:100A900004D1400302F0FBF9FFF7CFFF4FF4804091
:100AA00002F0EAF9012804D1800302F0F0F9FFF71F
:100AB000C3FF4FF4004002F0DFF9012804D1C00366
:100AC00002F0E5F9FFF7B7FF10BD0000200000209D
:100AD0007FB505460C460121202000F0D2FF01958C
:100AE000ADF800400020ADF80800ADF802006946FE
:100AF000134801F07EF901221146114801F01AFE57
:100B000037208DF80C0005208DF80D0000208DF8A1
:100B10000E0001208DF80F0003A800F0DAFB7FBD66
:100B200010B50121064801F01CFE38B1012104482E
:100B300001F028FE0021024801F0E4F910BD000098
:100B400000140040002100BF0EE050B12A4A10807E
:100B500000BF294A121F128802F04002002AF8D072
:100B600000E070474A1CD1B20329EEDB00BFF8E772
:100B700010B50024FF20214908704870887000BF1C
:100B80000FE01E48015D1C48001F01F0F1FF00BF8F
:100B900040211948001F02F09BF80128F8D1601C81
:100BA000C4B2032CEDDB10BD0146002010E00A5C4E
:100BB0006AB10A5C104B1A8000BF0F4A121F1288DC
:100BC00002F04002002AF8D0421CD0B200E000E05F
:100BD000EDE700BF00200CE0FF22074B1A8000BFAA
:100BE000054A121F128802F04002002AF8D0421C67
:100BF000D0B20328F0DB7047041401403309002011
:100C000000B587B0002201210A2002F065FA574999
:100C100008600846006820B9222255A15CA004F0B3
:100C2000B0FF0020604908700121084600F0E0FE96
:100C30000121C80400F025FF5C4801F07FFE082276
:100C400000215B4800F0C1FC08220121584800F057
:100C5000BCFC0320059002208DF8180003208DF8BD
:100C6000190000208DF81A0001208DF81B0005A93D
:100C70004F4800F01FFC4FF4165001900020ADF8D3
:100C80000800ADF80A00ADF80C00ADF810000C201B
:100C9000ADF80E0001A9454801F0B7FE40214348D8
:100CA00002F023F8012240F22551404801F0EBFF09
:100CB00034208DF8000007208DF8010000208DF809
:100CC000020001208DF80300684600F002FB0121BC
:100CD000364801F022FF07B000BD10B504460023DE
:100CE0004FF47A7221462148006802F0C5FB0128C2
:100CF00000D110BD0020207000BFFAE71CB5002015
:100D0000019040F22551294801F0F8FFB0B1274881
:100D100001F032FFC0B20090002301AA69461348D7
:100D2000006802F07EFC019838B14FF080502149F4
:100D30000860BFF34F8FBFF36F8F00BF1CBD70B54E
:100D400005460E46002400BF0CE000BF40211748B6
:100D500001F0BEFF0028F9D0295D144801F008FF1A
:100D6000601CC4B2B442F0DB70BD0000280000205B
:100D70002E2E5C48415244574152455C7372635C6D
:100D8000756172745F6D6D7772616461722E63005C
:100D900075617274626C75654461746144656C69F7
:100DA000766572790000000024000020004C0040AD
:100DB0000000024004ED00E000B587B000220121F0
:100DC0000A2002F089F9514908600846006820B9F4
:100DD00022224FA156A004F0D4FE0121022000F0EF
:100DE00007FE0121880400F04CFE07220A21554825
:100DF00000F0EBFB07220B21524800F0E6FB4FF41A
:100E00004060059002208DF818008DF81900002030
:100E10008DF81A0001208DF81B0005A9494800F043
:100E200049FB4FF4E13001900020ADF80800ADF827
:100E30000A00ADF80C00ADF810000C20ADF80E0063
:100E400001A9414801F0E1FD012240F225513E484F
:100E500001F019FF27208DF800000A208DF801000D
:100E600000208DF8020001208DF80300684600F094
:100E700030FA0121344801F050FE07B000BD10B532
:100E8000044600234FF47A7221462048006802F09D
:100E9000F3FA012800D110BD0020207000BFFAE74E
:100EA0001CB5002001902848008800F02000B0B157
:100EB0002548001D0088C0B20090002301AA6946A1
:100EC0001248006802F0ADFB019838B14FF0805035
:100ED0001E490860BFF34F8FBFF36F8F00BF1CBD6B
:100EE00070B505460E46002400BF0CE000BF40214F
:100EF000154801F0EDFE0028F9D0295D124801F0F7
:100F000037FE601CC4B2B442F0DB70BD2C00002080
:100F10002E2E5C48415244574152455C7372635CCB
:100F2000756172745F7379736C696E6B2E63000008
:100F300075617274736C6B4461746144656C69763D
:100F400065727900000402400048004004ED00E0B2
:100F500000B587B00121084600F04AFD01211020AC
:100F600000F0A0FD07220921404800F02EFB0722D7
:100F70000A213E4800F029FB4FF4C0600590022092
:100F80008DF818008DF8190000208DF81A00012046
:100F90008DF81B0005A9354800F08CFA4FF4E130BC
:100FA00001900020ADF80800ADF80A00ADF80C0083
:100FB000ADF810000C20ADF80E0001A92C4801F08E
:100FC00024FD012240F22551294801F05CFE252034
:100FD0008DF8000006208DF8010000208DF8020039
:100FE00001208DF80300684600F073F94021204885
:100FF00001F07BFE01211E4801F08FFD07B000BD0E
:1010000010B51B48008800F0200068B3184880889D
:10101000C4B2242C02D1002016490880154800884B
:1010200000F4004000BB134801880088401C114AAE
:10103000108011484454104600885E2805DD104693
:10104000008840F40040114608800A2C0CD1002092
:101050000A4988760849094804F0FBFC05480088DD
:1010600040F400400349088010BD00000000024029
:101070000010014030000020D4000020E882002051
:1010800000B587B00121084600F0B2FC01214804F8
:1010900000F0F7FC474801F051FC072202214648C6
:1010A00000F093FA07220321434800F08EFA0C2047
:1010B000059002208DF818008DF8190000208DF899
:1010C0001A0001208DF81B0005A93B4800F0F2F939
:1010D0004FF4E13001900020ADF80800ADF80A00AF
:1010E000ADF80C00ADF810000C20ADF80E0001A911
:1010F000304801F08AFC012240F225512D4801F0D0
:10110000C2FD26208DF8000005208DF8010000208A
:101110008DF8020001208DF80300684600F0D9F830
:101120004021244801F0E1FD0121224801F0F5FCB5
:1011300007B000BD10B500241E48008800F0200054
:1011400000B31C48001D0088C4B21C48008800F48D
:101150000040B8B919480088B0F5006F13DA0021D3
:10116000174800F08FFE1548008818B9012114486F
:1011700000F0C8FE114801880088401C0F4A10800A
:101180001048445402E000200C49088010BD10B5FE
:1011900004460BE000BF4021064801F099FD0028FD
:1011A000F9D02178034801F0E3FC641C2078002882
:1011B000F0D110BD00440040000002403200002089
:1011C000001400403301002000B587B00121042045
:1011D00000F00EFC0121202000F064FC184801F012
:1011E000ADFB08220621174800F0EFF940200590DA
:1011F00002208DF818008DF8190000208DF81A00D3
:1012000001208DF81B0005A90E4800F053F94FF49A
:10121000E13001900020ADF80800ADF80A00ADF80B
:101220000C00ADF810000820ADF80E0001A904482C
:1012300001F0EBFB0121024801F06FFC07B000BD9B
:10124000001401400008024010B50024FFF778FAAE
:10125000A82001F025FEFFF77BFEFFF7B5FFFFF7A3
:1012600081F9FFF7ABF9FFF7C7F9C82001F057FE86
:10127000FFF77EFC00BF0CE00948006808B90120B8
:1012800000E0002006490860FA2001F048FE601CDA
:10129000C4B2042CF0DB04F051FF04F01FFD10BDBC
:1012A0009C0243420648804706480047FEE7FEE7A7
:1012B000FEE7FEE7FEE7FEE7FEE7FEE7FEE7FEE706
:1012C000310400088901000832490143324A1160A3
:1012D000704770B5002100230F22C4781CB32E4C38
:1012E000246804F4E064C4F5E064C4F30721C1F1A8
:1012F0000404E3B20A4144789C40E1B2847814408B
:1013000021430C07210E254C05786155047804F023
:101310001F050124AC4005786D11AD0005F1E025F5
:10132000C5F8004109E0047804F01F050124AC4031
:101330001B4D0678761145F8264070BD194A0A40C3
:101340000243154B1B1F1A60704739B1124A121D18
:1013500012680243104B1B1D1A6006E00E4A121D54
:10136000126882430C4B1B1D1A607047042808D179
:101370004FF0E021096941F004014FF0E0221161D2
:1013800007E04FF0E021096921F004014FF0E0226D
:10139000116170470000FA050CED00E000E400E088
:1013A00080E100E080FFFF1F10B5044698488442AA
:1013B00008D10121084600F086FB0021012000F041
:1013C00082FB76E09348844208D10121022000F09C
:1013D0007AFB0021022000F076FB6AE08E4884420E
:1013E00008D10121042000F06EFB0021042000F050
:1013F0006AFB5EE08948844208D10121082000F0A0
:1014000062FB0021082000F05EFB52E08448844229
:1014100008D10121102000F056FB0021102000F01F
:1014200052FB46E07F48844208D10121202000F091
:101430004AFB0021202000F046FB3AE07A48844233
:1014400008D10121402000F03EFB0021402000F0A7
:101450003AFB2EE07548844208D10121802000F03B
:1014600032FB0021802000F02EFB22E070488442F5
:1014700008D10121801500F026FB0021A01500F005
:1014800022FB16E06B48844208D10121401500F090
:101490001AFB0021601500F016FB0AE06648844242
:1014A00007D10121001500F00EFB0021201500F0EE
:1014B0000AFB10BDF0B50A4600210023002400BF3E
:1014C0003DE0012505FA01F3156805EA03049C4295
:1014D00034D105684F000326BE40B5430560157939
:1014E0004E00B5400668354305601579012D02D0E0
:1014F0001579022D16D185684F000326BE40B543ED
:10150000856055794E00B5408668354385604568ED
:1015100001268E40B5434560456896798E40B6B247
:1015200035434560C5684F000326BE40B543C560DE
:10153000D5794E00B540C6683543C560491C1029B1
:10154000BFD3F0BD4FF6FF71016000210171417101
:101550008171C171704708B54FF480320092009AD2
:101560000A430092009AC261C161009AC261C269D5
:101570000092C269009208BD0246002013690B4028
:101580000BB1012000E0002070470146086980B2DD
:1015900070470246002053690B400BB1012000E068
:1015A000002070470146486980B270470183704748
:1015B000418370470AB1018300E041837047416174
:1015C000704742694A4042617047F0B500230024E9
:1015D0004D07ED0E02FA05F3CE1000F1200555F887
:1015E00026504E07F70E0F26BE40B543CF1000F130
:1015F000200646F82750CE1000F1200555F8265059
:1016000045EA0304CE1000F1200545F82640F0BD60
:10161000000002400004024000080240000C0240AA
:10162000001002400014024000180240001C02405A
:10163000002002400024024000280240F9480068CF
:1016400040F00100F74908600020F64908310860C1
:10165000F4480068F4490840F2490860F348091D5D
:101660000860F348EF4984310860F0481038091DDC
:101670000860EC48006820F48020EA4908600020F7
:10168000E8490C310860E7498C3108607047002157
:10169000E44A921C117011460870704710B501465B
:1016A0000022002300204A11012A02D1DD4C2368C8
:1016B00008E0022A03D1DB4C7034236802E0D94CE5
:1016C0007434236801F01F02012494401C400CB1C3
:1016D000012000E0002010BD38B50020009000245B
:1016E000002500BF3120FFF7D9FF05460098401CB8
:1016F00000900098B0F5A04F01D0002DF2D031201D
:10170000FFF7CCFF08B1012400E00024204638BDDB
:1017100001460020C34A106820F0F80040EAC100EA
:1017200010607047C349086070470021BD4A70329D
:1017300011701170012802D004280AD104E001219F
:10174000B84A7032117005E00521B64A7032117046
:1017500000E000BF00BF7047B7490860704770B530
:10176000049C41EA82150126C6EB530645EA06456C
:10177000054345EA0465AB4E361D356070BDAD4985
:1017800008667047820142EA0172A64B84331A60F0
:101790007047A8498866704710B5830143EA016322
:1017A00043EA02739F4C8834236010BDA149086747
:1017B0007047A049C864704702460020994B08331F
:1017C000186820F0EC6042EA01031843954B083397
:1017D0001860704702460020924B0833186820F0CA
:1017E000784042EA010318438E4B08331860704773
:1017F000014600208B4A0832106820F0030008439D
:101800001060704787480830006800F00C0070478F
:1018100001460020834A0832106820F0F000084397
:1018200010607047014600207E4A0832106820F49C
:10183000E05008431060704701460020794A0832A2
:10184000106820F4604040EAC10010607047F0B5B5
:10185000002100220024022500260223714F0837B0
:101860003F6807F00C0121B1042905D0082937D1C0
:1018700005E0724F076036E0714F076033E0694F53
:101880003F1D3F68C7F38056664F3F1D3F6807F016
:101890003F036EB16A4FB7FBF3F7DFF888C10CF175
:1018A000040CDCF800C0CCF3881C07FB0CF40CE043
:1018B000624FB7FBF3F7DFF86CC10CF1040CDCF8F6
:1018C00000C0CCF3881C07FB0CF4564F3F1D3F684B
:1018D000C7F301477F1C7D00B4FBF5F7076002E00A
:1018E000564F076000BF00BF4E4F08373F6807F0F4
:1018F000F0010909534F7A5C0768D7404760494FA8
:1019000008373F6807F4E051890A4E4F7A5C476810
:10191000D7408760434F08373F6807F46041490B61
:10192000484F7A5C4768D740C760F0BD002100F49B
:101930004072B2F5407F0AD13A4A0832116821F468
:10194000F811414A02401143364A08321160354AC3
:1019500070321268C0F30B031A43324B70331A60B3
:101960007047354944390860704733494039086049
:10197000704736490860704701460020294A8C327A
:10198000106820F01F004A1E1043264A8C32106057
:10199000704701460020234A8C32106820F4F8502A
:1019A0004A1E40EA02201F4A8C32106070470146EE
:1019B00000201C4A8C32106820F44010084310604C
:1019C000704701460020174A8C32106820F440000E
:1019D00008431060704701460020124A8C3210689C
:1019E00020F4403008431060704719490860704780
:1019F00039B10C4A3032126802430A4B30331A6054
:101A000006E0084A303212688243064B30331A60CF
:101A10007047F9B1034A343212680243014B343340
:101A20001A601CE000380240FFFFF6EA1030002484
:101A30000030002000004742800E47420024F4009E
:101A400000127A0034000020FFFCFF0F5C014742C7
:101A5000E01147428F4A126882438E4B1A607047EA
:101A600039B18C4A121D126802438A4B1B1D1A6041
:101A700006E0884A121D12688243864B1B1D1A60BD
:101A8000704739B1834A0C3212680243814B0C33E0
:101A90001A6006E07F4A0C32126882437D4B0C3399
:101AA0001A60704739B17B4A103212680243794B91
:101AB00010331A6006E0774A103212688243754B81
:101AC00010331A60704739B1724A243A12680243DF
:101AD000704B243B1A6006E06E4A243A1268824337
:101AE0006C4B243B1A60704739B16A4A203A12683D
:101AF0000243684B203B1A6006E0664A203A1268AF
:101B00008243644B203B1A60704739B1614A1C3AEA
:101B1000126802435F4B1C3B1A6006E05D4A1C3AA8
:101B2000126882435B4B1C3B1A60704739B1594ABB
:101B3000143A12680243574B143B1A6006E0554AA8
:101B4000143A12688243534B143B1A60704739B100
:101B5000504A103A126802434E4B103B1A6006E09E
:101B60004C4A103A126882434A4B103B1A60704745
:101B700039B1484A1C3212680243464B1C331A6082
:101B800006E0444A1C3212688243424B1C331A60FE
:101B9000704739B13F4A2032126802433D4B20332F
:101BA0001A6006E03B4A203212688243394B2033E8
:101BB0001A60704739B1374A243212680243354BF4
:101BC00024331A6006E0334A243212688243314BD0
:101BD00024331A60704739B12E4A2C3212680243FE
:101BE0002C4B2C331A6006E02A4A2C3212688243AE
:101BF000284B2C331A60704739B1264A30321268AC
:101C00000243244B30331A6006E0224A3032126815
:101C10008243204B30331A607047012808D11D4998
:101C20003C31096841F008011A4A3C32116007E072
:101C300018493C31096821F00801164A3C3211600C
:101C4000704739B1134A273A12780243114B273BA8
:101C50001A7006E00F4A273A127882430D4B273B51
:101C60001A7070470B484030006840F08070094996
:101C700040310860704701460020064A283A126841
:101C80000A400AB1012000E00020704701492639CE
:101C9000087070473438024010B50446FE4884424C
:101CA00008D101210846FFF752FF00210120FFF76C
:101CB0004EFF9DE0B4F1804F08D101210846FFF7A7
:101CC00035FF00210120FFF731FF91E0F348844206
:101CD00008D101210220FFF729FF00210220FFF790
:101CE00025FF85E0EE48844208D101210420FFF75A
:101CF0001DFF00210420FFF719FF79E0E948844225
:101D000008D101210820FFF711FF00210820FFF76B
:101D10000DFF6DE0E448844208D101211020FFF757
:101D200005FF00211020FFF701FF61E0DF4884423A
:101D300008D101212020FFF7F9FE00212020FFF724
:101D4000F5FE55E0DA48844208D101210220FFF770
:101D5000FEFE00210220FFF7FAFE49E0D54884424A
:101D600009D101210804FFF7F2FE00214FF4803071
:101D7000FFF7EDFE3CE0D048844209D10121480440
:101D8000FFF7E5FE00214FF40030FFF7E0FE2FE003
:101D9000CA48844209D101218804FFF7D8FE0021F6
:101DA0004FF48020FFF7D3FE22E0C548844208D1DB
:101DB00001214020FFF7BAFE00214020FFF7B6FEC8
:101DC00016E0C048844208D101218020FFF7AEFE12
:101DD00000218020FFF7AAFE0AE0BB48844207D119
:101DE00001218015FFF7A2FE0021A015FFF79EFE3E
:101DF00010BD00220288A84B98420ED0AC4B9842EE
:101E00000BD0B0F1804F08D0A44B984205D0A44B22
:101E1000984202D0A34B984204D14FF68F731A40D8
:101E20004B881A43A04B984207D0A04B984204D04D
:101E30004FF6FF431A400B891A4302804B68C36276
:101E40000B880385944B984202D0994B984201D15C
:101E50008B7A03860123838270474FF0FF31416004
:101E60000021018001814180817270470185828259
:101E700070470A46002101884FF68F7319401143BD
:101E80000180704741627047C16270470146486AED
:101E900070470146088D704721B1028842F0020266
:101EA000028004E002884FF6FD731A4002807047FA
:101EB00021B1028842F00402028004E002884FF659
:101EC000FB731A400280704721B1028842F0800201
:101ED000028004E002884FF67F731A400280704748
:101EE00002884FF6F7731A40028002880A43028084
:101EF000704702884FF6FF431A40028002880A4367
:101F00000280704721B1028842F00102028004E0A1
:101F100002884FF6FE731A400280704770B50024A5
:101F200000220023058C4FF6FE7635400584028C96
:101F30008388048B4FF68F752C40B51E2C400D887E
:101F40002C43751E2A408D892A434D882A43524DC1
:101F5000A84202D0564DA84213D14FF6F7752A4039
:101F6000CD892A434FF6FB752A408D882A434FF6C8
:101F7000FF652B404FF6FF552B400D8A2B434D8AB2
:101F80002B43838004838D684563028470BD70B5E4
:101F9000002400220023058C4FF6EF76354005849F
:101FA000028C8388048B48F6FF752C404FF6FF4562
:101FB0002C400D884FF6FF7606EA05252C434FF698
:101FC000DF752A408D8906EA05152A434D8806EA01
:101FD00005152A43304DA84202D0354DA8421DD1E7
:101FE0004FF67F752A40CD894FF6FF7606EA051534
:101FF0002A434FF6BF752A408D8806EA05152A4305
:102000004FF6FF352B404FF2FF752B400D8A06EA45
:1020100085052B434D8A06EA85052B43838004837F
:102020008D688563028470BD70B500240022002392
:10203000058C4FF6FF6635400584028C8388848BBF
:102040004FF68F752C404FF6FC752C400D882C43B5
:102050004FF6FF552A408D894FF6FF7606EA052593
:102060002A434D8806EA05252A430B4DA84202D093
:102070000F4DA84238D14FF2FF752A40CD894FF657
:10208000FF7606EA05252A434FF6FF352A408D885C
:1020900006EA05252A4319E000000140000400403B
:1020A00000080040000C00400010004000140040F8
:1020B000000401400040014000440140004801404C
:1020C00000180040001C0040002000404EF6FF7544
:1020D0002B404DF6FF752B400D8A06EA05152B4364
:1020E0004D8A06EA05152B43838084838D68C5637A
:1020F000028470BD70B5002200230024058C4EF6CA
:10210000FF7635400584038C8488828B48F6FF7502
:102110002A404FF6FF452A400D884FF6FF7606EA23
:1021200005252A434DF6FF752B408D8906EA0535B6
:102130002B434D8806EA05352B43FE4DA84202D0BD
:10214000FD4DA84208D14BF6FF752C400D8A4FF685
:10215000FF7606EA85152C43848082838D680564AA
:10216000038470BD00210180418081808160818174
:10217000C18101824182704770B50346002000246E
:102180001846183001258D40ACB21D8CA5431D8426
:1021900009B108290AD100EB610005684FF68F7676
:1021A000354005600568154305600FE00D1FC5F358
:1021B0004E052844056848F6FF76354005600568F9
:1021C0004FF6FF7606EA02263543056070BD41638F
:1021D000704781637047C1637047016470470A4666
:1021E0000021018B4FF68F73194011430183704713
:1021F0000A460021018B48F6FF7319404FF6FF7322
:1022000003EA02231943018370470A460021818BA8
:102210004FF68F7319401143818370470A4600219E
:10222000818B48F6FF7319404FF6FF7303EA0223D0
:102230001943818370470A460021018B4FF6F773DB
:1022400019401143018370470A460021018B4FF268
:10225000FF7319404FF6FF7303EA0223194301830A
:1022600070470A460021818B4FF6F77319401143DE
:10227000818370470A460021818B4FF2FF7319401A
:102280004FF6FF7303EA02231943818370470A461E
:102290000021018B4FF6FB731940114301837047F6
:1022A0000A460021018B4FF6FF3319404FF6FF73AA
:1022B00003EA02231943018370470A460021818BF8
:1022C0004FF6FB7319401143818370470A46002182
:1022D000818B4FF6FF3319404FF6FF7303EA022359
:1022E0001943818370470A460021018B4FF67F73A3
:1022F00019401143018370470A460021018BC1F345
:102300000E014FF6FF7303EA02231943018370475E
:102310000A460021818B4FF67F7319401143818358
:1023200070470A460021818BC1F30E014FF6FF73FF
:1023300003EA02231943818370470A460021018C76
:102340004FF6FD7319401143018470470A4600217E
:10235000018C4FF6F77319401143018470470A4608
:102360000021018C4FF6DF7319404FF6FF7303EA2B
:1023700002131943018470470A460021018C4FF66D
:102380007F7319404FF6FF7303EA02131943018468
:1023900070470A460021018C4FF6FF5319404FF653
:1023A000FF7303EA02231943018470470A460021A0
:1023B000018C4FF2FF7319404FF6FF7303EA0223BB
:1023C0001943018470470A460021018C4DF6FF73C2
:1023D00019404FF6FF7303EA023319430184704733
:1023E00030B5002301248C40A3B2048C9C430484A8
:1023F000048C02FA01F5ADB22C43048430BD30B533
:10240000002304248C40A3B2048C9C430484048CD9
:1024100002FA01F5ADB22C43048430BD828B4FF239
:10242000FF331A408283828B4FF6FF7303EA012346
:102430001A4382837047F0B50C46154600210022EE
:102440000026078C4EF6FF7C07EA0C070784818B79
:10245000028C4FF6FF7707EA043640F6FF47394013
:102460004FF6FF7707EA052739434FF6FF7707EA6C
:102470000337394345F6FF773A4046F480573A43ED
:1024800081830284F0BD828B4FF6F3731A408283FE
:10249000828B0A4382837047F0B50C4615460021B3
:1024A00000220026078C4FF6FF6C07EA0C07078412
:1024B000818B028C4FF6FF7707EA04264FF60C77E4
:1024C00039404FF6FF7707EA03172F4339434FF29E
:1024D000FF573A4046F480773A4381830284F0BD47
:1024E000028B4FF2FF331A400283028B4FF6FF73C9
:1024F00003EA01231A4302837047F0B50C461546E0
:10250000002100220026078C4FF6EF7C07EA0C071B
:102510000784018B028C4FF6FF7707EA041640F61A
:10252000FF4739404FF6FF7707EA033739434FF645
:10253000FF7703E0000001400004014007EA05279F
:1025400039434FF65F773A4046F010073A4301832C
:102550000284F0BD028B4FF6F3731A400283028BA4
:102560000A4302837047F0B50C461546002100224D
:10257000068C4FF6FE773E400684018B028C4FF6A8
:102580000C7631407E1C06EA03162E4331434FF68B
:10259000F576324044F00106324301830284F0BDF7
:1025A00070B505460C46208850B92389A2886188F9
:1025B0002846FFF7D8FFE1882846FFF7CBFF25E044
:1025C000208804280AD12389A28861882846FFF739
:1025D00094FFE1882846FFF783FF17E0208808284A
:1025E0000AD12389A28861882846FFF755FFE18830
:1025F0002846FFF748FF09E02389A288618828461A
:10260000FFF719FFE1882846FFF708FF70BD00219A
:1026100001804180012181800021C18001817047BA
:102620002DE9F04105460C4600260127608808B9CF
:10263000022600E00026A088012801D1022700E040
:1026400001272088A0B92389A28861882846FFF73E
:102650008AFFE1882846FFF77DFF23893A46314605
:102660002846FFF74AFFE1882846FFF739FF13E0C5
:102670002389A28861882846FFF73FFFE188284622
:10268000FFF72EFF23893A4631462846FFF76BFFB6
:10269000E1882846FFF75EFFBDE8F0810146486B00
:1026A00070470146886B70470146C86B704701460A
:1026B000086C70470A884B881A438B881A43CB886A
:1026C0001A430B891A434B891A438B891A43A0F882
:1026D000442070470021018041808180C1800181B8
:1026E00041818181704731B1B0F8442042F4004209
:1026F000A0F8442005E0B0F84420C2F30E02A0F890
:102700004420704721B1828842F00402828004E0B4
:1027100082884FF6FB731A408280704721B182880D
:1027200042F00102828004E082884FF6FE731A4074
:10273000828070471AB183890B43838102E08389C9
:102740008B43838170478182704702460020138A41
:102750000B400BB1012000E000207047CA43028209
:10276000704730B50246002000230024158A05EA90
:102770000103958905EA010413B10CB1012000E0C1
:10278000002030BDCA430282704741EA0203A0F82C
:10279000483070471AB183890B43838102E08389F3
:1027A0008B438381704721B1828842F00802828086
:1027B00004E082884FF6F7731A40828070470189DF
:1027C0004FF6F8721140018170470A4600210189D5
:1027D0004FF68F73194011430181704730B504469D
:1027E0000D4629462046FFF7F0FF208940F00700FC
:1027F000208130BD2DE9F04104460D4616461F46A6
:10280000602D06D13B46012231462046FFF775FE7A
:1028100005E03B46012231462046FFF7A4FE29464B
:102820002046FFF7D2FF208940F007002081BDE855
:10283000F08130B50C4600210189C9B24FF6FF7511
:1028400005EA0325154325432943018130BD2DE9C0
:10285000F04105460E4617469846002443463A4640
:1028600031462846FFF7E5FF2C894FF6F870044003
:1028700044F007044FF68F70044044F070042C813C
:10288000BDE8F081F0B504460D4616461F463B46AE
:10289000324629462046FFF7CCFF208940F480408D
:1028A0002081F0BD82884FF68F731A408280828823
:1028B0000A438280704702894FF6F8731A400281FA
:1028C00002890A430281704702894FF67F731A40DA
:1028D000028102890A4302817047F0B50C46154611
:1028E0001E460021002200230189028B038C4FF633
:1028F000F877394021434FF6FC473A4040F2011740
:102900003A434FF6DD773B404FF6FF7707EA06176D
:102910002F433B43018102830384F0BD21B18288B0
:1029200042F08002828004E082884FF67F731A4072
:1029300082807047A0F850107047000010B5044620
:10294000FA48844208D101211020FFF700F9002144
:102950001020FFF7FCF857E0F548844209D1012127
:102960004804FFF7E3F800214FF40030FFF7DEF8EA
:102970004AE0F048844209D101218804FFF7D6F8E3
:1029800000214FF48020FFF7D1F83DE0EA4884426F
:1029900009D10121C804FFF7C9F800214FF4002034
:1029A000FFF7C4F830E0E548844209D10121080569
:1029B000FFF7BCF800214FF48010FFF7B7F823E0D1
:1029C000DF48844208D101212020FFF7C0F8002110
:1029D0002020FFF7BCF817E0DA48844209D1012132
:1029E0008807FFF7A3F800214FF08040FFF79EF81B
:1029F0000AE0D548844207D101214005FFF796F847
:102A000000216005FFF792F810BD2DE9FF4705464C
:102A10000E460024A14600BFA046B08900B100BF09
:102A20002C8A24F44054F08804432C82AC8941F26F
:102A30000C608443B088318908437189084304439A
:102A4000AC81AC8A24F44074B0890443AC826846FB
:102A5000FEF7FDFEB548854202D0B948854202D155
:102A6000DDF80C9001E0DDF80890A88900F4004042
:102A700040B109EBC90000EB091031684900B0FB17
:102A8000F1F707E009EBC90000EB09103168890094
:102A9000B0FBF1F76420B7FBF0F0040120096421DA
:102AA00001FB1078A88900F4004040B1322000EB0F
:102AB000C800B0FBF1F000F00700044308E032204A
:102AC00000EB08106421B0FBF1F000F00F000443AC
:102AD0002C81BDE8FF874FF41651016000218180F1
:102AE000C18001810C21418100218181704710B595
:102AF00002460020108A20F470600B884C88234323
:102B00008C882343CC8823431843108210BD0021B6
:102B1000018041808180C180704721B1828942F467
:102B20000052828104E082894DF6FF731A4082814F
:102B30007047028B02F47F420283028B0A430283B6
:102B4000704721B1828942F40042828103E0828988
:102B5000C2F30E028281704721B1828A42F4006280
:102B6000828204E0828A4FF2FF731A4082827047A9
:102B7000C1F308028280704701468888C0F30800CC
:102B80007047028A4FF6F0731A400282028A0A43A3
:102B90000282704721B1828942F00202828104E000
:102BA00082894FF6FD731A408281704782894FF205
:102BB000FF731A40828182890A4382817047028AA8
:102BC0004FF6DF731A400282028A0A43028270477C
:102BD00021B1028A42F48042028204E0028A4BF66A
:102BE000FF731A4002827047818941F0010181819F
:102BF000704721B1828A42F00802828204E0828A10
:102C00004FF6F7731A4082827047028BD2B202836A
:102C1000028B42EA01220283704721B1828A42F08C
:102C20002002828204E0828A4FF6DF731A40828299
:102C3000704721B1828A42F01002828204E0828AC7
:102C40004FF6EF731A4082827047828A4FF6FB7309
:102C50001A408282828A0A438282704721B1828A24
:102C600042F00202828204E0828A4FF6FD731A402B
:102C7000828270471AB1838A0B43838202E0838A7F
:102C80008B4383827047F0B503460024002600255D
:102C9000002040F66A17B94200D100BF1846C1F3C0
:102CA000421401F01F06012707FA06F5012C01D195
:102CB0000C3004E0022C01D1103000E014301AB1C5
:102CC00007682F43076002E00768AF430760F0BD65
:102CD00002460020B1F5007F00D100BF13880B40F1
:102CE0000BB1012000E00020704701F40072B2F542
:102CF000007F00D100BFCA430280704770B5024612
:102D0000002400230025002040F66A16B14200D1BD
:102D100000BFC1F3421501F01F03012606FA03F3B9
:102D2000012D13D19689334017E0000000100140B7
:102D30000044004000480040004C0040005000406B
:102D40000014014000780040007C0040022D02D1B8
:102D5000168A334001E0968A33400C12012606FAA7
:102D600004F41688344013B10CB1012000E00020B7
:102D700070BD10B50022002340F66A14A14200D1B4
:102D800000BF0A1201249440A3B2DC43048010BDAA
:102D9000002041490860091D0860091D0860091DDF
:102DA00008603E483C4914310860704700213A49A8
:102DB0008279002A3AD00A46126803689A430B4681
:102DC0001A600A1D126803689A430B1D1A60027983
:102DD00011440A6803681A430A602F4A08321268CD
:102DE00003689A432C4B08331A601A1D1268036853
:102DF0009A43294B0C331A604279102A0ED11A1FBC
:102E0000126803681A43244B08331A601A1D1268AB
:102E100003681A43204B0C331A600DE01E494279B7
:102E200011440A6803681A430A6005E002791144F4
:102E30000A6803689A430A607047002101600171C3
:102E40000C214171002181717047134910310968CB
:102E50000143114A103211607047014600200E4AAA
:102E6000143212680A400AB1012000E000207047C5
:102E7000094914310860704701460020064A14329F
:102E800012680A400AB1012000E0002070470249A0
:102E90001431086070470000003C0140FFFF7F00D4
:102EA00070B504460420FEF761FA324804702546E6
:102EB0004FF47A70454301202F4908804FF0E020FD
:102EC000006940F002004FF0E021086108464561CA
:102ED000006940F00100086170BD70B50346002232
:102EE0004FF0E0267569234E367803FB06F44FF069
:102EF000E026B16910E04FF0E026B06988420BD0BF
:102F0000884202D20E1A324402E02E1A0E44324493
:102F10000146A24200D300E0EDE700BF70BD70B5EE
:102F2000044601F0C8FC012810D0134800888442F0
:102F300006D311480088B4FBF0F5284601F034F8B8
:102F40000D480088B4FBF0F100FB11444FF47A7196
:102F500004FB01F0FFF7C1FF70BD30B5044600254A
:102F600004E04FF47A70FFF7B8FF6D1CA542F8D368
:102F700030BD0000440000204600002000BF704724
:102F800000BF054A128802F04002002AF9D0C2B2FE
:102F9000014B9A80704700000010014000F10801C9
:102FA00041604FF0FF31816000F10801C1600161B3
:102FB00000210160704700210161704742684A604A
:102FC00093688B60936859609160086103685B1C2B
:102FD0000360704710B502460B685C1C0CB91069A1
:102FE00007E002F1080000E04068446824689C4261
:102FF000FAD944684C604C68A160886041600A61FD
:103000001468641C146010BD01460A69D1E90130DE
:103010009860D1E9010358605068884201D18868FE
:103020005060002008611068401E106010687047F2
:1030300070B505460E462C4602F0BDFAD4E90F12D3
:10304000206801FB020060600020A0632068A0608F
:10305000E06B401E226C216800FB0210E060FF2044
:1030600084F8440084F845009EB9206908B901201D
:1030700000E00020A8B904F1100001F065FB80B168
:103080004FF08050FB490860BFF34F8FBFF36F8F45
:1030900007E004F11000FFF781FF04F12400FFF7BF
:1030A0007DFF02F097FA012070BD2DE9F041064640
:1030B0000D4617469846069C0DB9246000E027602F
:1030C000E663256401212046FFF7B2FF84F85080B3
:1030D0000020A064BDE8F0812DE9F84307460D46C5
:1030E00090460DB9002601E007FB05F606F15400F5
:1030F00002F081F9044644B104F1540943464A46BA
:10310000294638460094FFF7D0FF2046BDE8F883F3
:103110002DE9F04104460F4615464FF00008A66B16
:10312000206C40B9206860BB606801F022FC8046DA
:103130000020606025E07DB93946226CA06803F06C
:1031400082F8216CA0680844A060D4E9011088428C
:1031500017D32068A06014E03946226CE06803F0C1
:1031600072F8216CE068401AE0602168E0688842EB
:1031700003D2216C6068401AE060022D01D106B1D3
:10318000761E701CA0634046BDE8F0812DE9F34136
:103190000D460098846C0027A06BE16B88421BD21F
:1031A00094F945602A4669462046FFF7B1FF074675
:1031B000701C60B9606A08B9012000E0002050B9B5
:1031C00004F1240001F0C0FA28B1012703E0701CCB
:1031D00040B284F8450000BF3846BDE8FC8170B5B8
:1031E000044602F0E8F994F945501AE0A06C38B1B1
:1031F00000212046FFF7CAFF88B101F039FB0EE03D
:10320000606A08B9012000E0002038B904F1240008
:1032100001F09AFA18B101F02BFB00E003E0681E00
:1032200045B2002DE2DC00BFFF2084F8450002F02B
:10323000D1F902F0C0F994F9445010E0206908B9BE
:10324000012000E0002048B904F1100001F07CFAF0
:1032500008B101F00DFB681E45B200E001E0002D51
:10326000ECDC00BFFF2084F8440002F0B3F970BD2D
:1032700070B5054602F09FF9A86BE96B884201D151
:10328000012400E0002402F0A5F9204670BD2DE9DC
:10329000FF4383B0074688461D464FF000093C4671
:1032A00000BF02F088F9A06BE16B884201D3022DC8
:1032B00038D12A4641462046FFF72AFF0646A06C31
:1032C00068B129462046FFF761FF28B34FF08050D0
:1032D00068490860BFF34F8FBFF36F8F1CE0606ACF
:1032E00008B9012000E0002068B904F1240001F0D1
:1032F0002BFA88B14FF080505E490860BFF34F8FC2
:10330000BFF36F8F08E03EB14FF08050594908601D
:10331000BFF34F8FBFF36F8F02F05CF9012007B04E
:10332000BDE8F083059818B902F054F90020F6E7DB
:10333000B9F1000F04D101A801F069FA4FF00109B9
:1033400002F048F900F0F5FD02F035F994F9440077
:10335000401C10B9002084F8440094F94500401C3A
:1033600010B9002084F8450002F034F905A901A83D
:1033700001F054FAF0B92046FFF77AFFA0B104F14A
:103380001000059901F0ACF92046FFF728FF00F086
:1033900005FD002885D14FF0805036490860BFF305
:1033A0004F8FBFF36F8F7CE72046FFF718FF00F0C9
:1033B000F5FC76E72046FFF712FF00F0EFFC002057
:1033C000ADE710B504464CB1002060602060E060BD
:1033D00000231A4619462046FFF759FF10BD2DE974
:1033E000F041044601260027224600210120FFF774
:1033F00073FE05462846FFF7E4FF2846BDE8F08146
:1034000070B50646344601F053FA616888420CD123
:10341000E068401EE060E06828B900231A461946BB
:103420002046FFF734FF012500E00025284670BD47
:1034300070B5054602F0BFF8A86B08B9012400E09A
:10344000002402F0C7F8204670BD70B504460D4652
:10345000206C70B1216CE0680844E0606168E0684D
:10346000884201D32068E0602846226CE16802F0BF
:10347000EAFE70BD04ED00E02DE9FF4782B005468D
:1034800089461E464FF0000A2C4600BF02F093F812
:10349000D4F83880B8F1000F3BD0E76849462046A1
:1034A000FFF7D3FFDEB9A8F10100A063206810B9CF
:1034B00001F039FB6060206908B9012000E00020BC
:1034C00008BB04F1100001F03FF9E0B14FF080506B
:1034D000F9490860BFF34F8FBFF36F8F13E0E760C8
:1034E000606A08B9012000E0002060B904F12400FE
:1034F00001F02AF938B14FF08050EF490860BFF36E
:103500004F8FBFF36F8F02F065F8012006B0BDE862
:10351000F087049818B902F05DF80020F6E7BAF1D8
:10352000000F04D1684601F072F94FF0010A02F071
:1035300051F800F0FEFC02F03EF894F94400401C03
:1035400010B9002084F8440094F94500401C10B9DB
:10355000002084F8450002F03DF804A9684601F017
:103560005DF940BB2046FFF763FFF0B1206830B93A
:1035700002F021F8606801F0AAF902F02BF804F1DA
:103580002400049901F0ACF82046FFF728FE00F073
:1035900005FC00287FF47AAF4FF08050C6490860E0
:1035A000BFF34F8FBFF36F8F70E72046FFF717FE13
:1035B00000F0F4FB6AE72046FFF711FE00F0EEFB97
:1035C0002046FFF735FF0028EED000209EE72DE9CA
:1035D000F04106460F46344601F06AF961688842B8
:1035E00004D1E068401CE06001250AE000233A466F
:1035F00019462046FFF740FF054615B1E068401C1C
:10360000E0602846BDE8F08170B506460D4602220E
:1036100000213046FFF760FD044604B1A563204653
:1036200070BD2DE9F05F06468A4615461F463446B2
:1036300000BF5021EFF3118081F31188BFF34F8F4A
:10364000BFF36F8F00BF8146A06BE16B884201D34F
:10365000022F2BD194F945B03A4651462046FFF748
:1036600057FD0BF10100C8B9A06C40B139462046A6
:10367000FFF78CFDB8B1B5B10120286013E0606A96
:1036800008B9012000E0002068B904F1240001F02D
:103690005BF840B13DB10120286004E00BF101006E
:1036A00040B284F845004FF0010801E04FF00008F7
:1036B00000BF89F3118800BF4046BDE8F09F2DE9A7
:1036C000F04706460D46344600BF5021EFF3118007
:1036D00081F31188BFF34F8FBFF36F8F00BF804618
:1036E000D4F83890E06B484528D994F945A009F101
:1036F0000100A0630AF10100C8B9A06C40B100212B
:103700002046FFF743FDB8B1B5B10120286013E0B2
:10371000606A08B9012000E0002068B904F12400C3
:1037200001F012F840B13DB10120286004E00AF137
:10373000010040B284F84500012700E0002700BFE7
:1037400088F3118800BF3846BDE8F0872DE9F05FA7
:1037500005468A4616462C4600BF5021EFF31180DD
:1037600081F31188BFF34F8FBFF36F8F00BF804687
:10377000D4F83890B9F1000F21D094F944B05146F3
:103780002046FFF762FEA9F10100A0630BF10100E2
:1037900070B9206908B9012000E0002068B904F17F
:1037A000100000F0D1FF40B13EB10120306004E0D4
:1037B0000BF1010040B284F84400012700E000272B
:1037C00000BF88F3118800BF3846BDE8F09F2DE99F
:1037D000F047054689462C4600BF5021EFF3118083
:1037E00081F31188BFF34F8FBFF36F8F00BF074680
:1037F000A06B48B1D4F80C8049462046FFF725FE5F
:10380000C4F80C80012600E0002600BF87F3118871
:1038100000BF3046BDE8F08770B5044601F0CBFE2E
:10382000A56B01F0D7FE284670BD70B5044625464D
:1038300001F0C1FED5E90E10461A01F0CBFE30466C
:1038400070BD0146886B7047014600200EE01B4AA0
:1038500002EBC00252688A4207D10022174B43F89C
:10386000302003EBC0035A6002E0401C0A28EED36C
:1038700000BF704770B5044625462846FFF7E4FFB1
:10388000284601F01BFE70BD0146C86C7047C1643C
:103890007047014691F85000704701468A6B0AB99B
:1038A000012000E00020704701468A6BCB6B9A42F2
:1038B00006D1012005E0000004ED00E044090020ED
:1038C00000207047024600200BE04A4B53F830308E
:1038D00033B9484B43F8301003EBC0035A6002E0A1
:1038E000401C0A28F1D300BF704702460020002187
:1038F0000AE0404B03EBC1035B68934203D13D4BAD
:1039000053F8310002E0491C0A29F2D300BF704786
:103910002DE9F04105460E4617462C4601F04BFEB8
:1039200094F94400401C10B9002084F8440094F934
:103930004500401C10B9002084F8450001F04AFE03
:10394000A06B28B93A46314604F1240000F0EAFEA3
:103950002046FFF744FCBDE8F08170B50446002224
:1039600004212046FFF7B8FB0546284670BD70B518
:1039700004460E4601F01FFEA06C08B1002505E0CC
:10398000A06B08B1002501E0A664012501F022FE2C
:10399000284670BD2DE9F04105460F462E46B06C15
:1039A000B84201D000240AE0B06B08B1002406E060
:1039B00001F001FE0020B06401F00CFE012420465D
:1039C000BDE8F08138B505460C4600200090002384
:1039D000224669462846FFF74FFD009838BD38B5A6
:1039E000044600200090002269462046FFF7AEFE04
:1039F000009838BD4409002010B5002407E004EB0E
:103A00008401FE4A02EB8100FFF7C8FA641C0A2C0D
:103A1000F5D3FB48FFF7C2FAFA48FFF7BFFAFA48B6
:103A2000FFF7BCFAF948FFF7B9FAF948FFF7B6FA19
:103A3000F348F8490860F348F749086010BD10B52D
:103A4000044601F0B8FDF5480068401CF3490860E1
:103A5000F348006840B9F24804600846006801284D
:103A60000DD1FFF7C9FF0AE0EE48006838B9EC480D
:103A70000068C06AE16A884201D8E9480460EA48FF
:103A80000068401CE849086008460068606494F8D3
:103A90002C1001208840E54909680843E349086083
:103AA000E16A01EB8101D54A02EB8100211DFFF79C
:103AB00085FA01F08FFDDB48006868B1D8480068DE
:103AC000C06AE16A884207D24FF08050D849086046
:103AD000BFF34F8FBFF36F8F10BD2DE9F05F8146AD
:103AE0000F4690469A460A9E0C9C4FEA8801A522F2
:103AF000206B02F0BAFBA8F10100216B01EB800BF7
:103B00002BF0070B002507E0795D04F134004155E7
:103B1000785D00B902E06D1C0F2DF5D300BF0021C8
:103B2000422001550A2E00D30926E662E6640020F1
:103B30002065201DFFF73FFA04F11800FFF73BFA5C
:103B40002461C6F10A00A061646200206065A0657E
:103B500084F85C0052464946584601F0EEFC20606D
:103B60000B9808B10B980460BDE8F09F2DE9FF4F5A
:103B700085B0804689461746DDE912ABB80001F0F2
:103B80003AFC064656B1602001F035FC04460CB103
:103B9000266304E0304601F091FC00E000247CB193
:103BA0000020CDE900ABCDE902403A464946404607
:103BB000089BFFF792FF2046FFF741FF012501E038
:103BC0004FF0FF35284609B0BDE8F08F91490968EC
:103BD000096809B9012100E0002121B14FF0FF314E
:103BE000944A116006E08B490968C968C868914A1F
:103BF00041681160704710B50446206B01F05EFC0F
:103C0000204601F05BFC10BD70B5054601F0D3FC09
:103C100015B98348006800E028460446201DFFF7D8
:103C2000F3F978B9E06A00EB8000744951F820009C
:103C300040B994F82C10012088407C4909688143E0
:103C40007A480160A06A18B104F11800FFF7DCF9A6
:103C500075480068401C74490860714800688442D7
:103C600009D1211D6948FFF7A9F973480068401C74
:103C70007149086009E069480068401E67490860AA
:103C80002046FFF7B8FFFFF7A1FF01F0A3FC65484E
:103C9000006858B162480068844207D14FF08050F4
:103CA00063490860BFF34F8FBFF36F8F70BD2DE97D
:103CB000F041002761480068002863D1604800682F
:103CC000451C5F4805608DB95248D0F800805248C5
:103CD0000068504908605048C0F8008059480068A2
:103CE000401C58490860FFF771FF00BF5148006849
:103CF00085423BD300BF47480068006808B90120EF
:103D000000E0002020B14FF0FF304A4908602CE06D
:103D100040480068C068C4686668B54202D2454839
:103D2000066022E0201DFFF76FF9A06A18B104F1C8
:103D30001800FFF769F994F82C10012088403B49DE
:103D40000968084339490860E16A01EB81012B4A9F
:103D500002EB8100211DFFF731F93149E06A096862
:103D6000C96A8842C7D30127C5E700BF2C4800684D
:103D7000C06A00EB8000214951F82000012800D9D9
:103D8000012704E030480068401C2F4908602F4894
:103D9000006800B101273846BDE8F08170B5002405
:103DA000002601F008FC25480068401E23490860F1
:103DB0000846006800287AD118480068002876D0A4
:103DC0004FE01148C068C46804F11800FFF71CF9FF
:103DD000201DFFF719F994F82C1001208840134991
:103DE0000968084311490860E16A01EB8101034A4F
:103DF00002EB8100211DFFF7E1F829E09409002082
:103E00005C0A0020700A0020840A0020980A002022
:103E1000AC0A002050000020540000205C0000206C
:103E20004C00002068000020780000206400002082
:103E300004ED00E07C0000205800002084000020F9
:103E400060000020740000206C0000207000002042
:103E5000F849E06A0968C96A884202D30120F64934
:103E60000860F648006808B9012000E0002000283A
:103E7000A7D00CB1FFF7AAFEF148056865B100BFF5
:103E8000FFF715FF10B10120EB4908606D1E002DF2
:103E9000F6D10020EA490860E748006838B10126F9
:103EA0003007E8490860BFF34F8FBFF36F8F01F011
:103EB00091FB304670BD2DE9F04105460E46E248C3
:103EC0000768DC480068001DFFF79EF850B9D94824
:103ED000006890F82C1001208840DC490968814373
:103EE000DA480160681C38B936B1D2480168091D4A
:103EF000D748FFF763F81AE07C19CE4800684460A1
:103F0000BC4207D2CB480168091DD2480068FFF7C0
:103F100061F80CE0C7480168091DCF480068FFF749
:103F200059F8CE480068844201D2CC480460BDE80C
:103F3000F081CB480068401CC949086070472DE9F2
:103F4000F047044688464FF00009FFF7F2FFBE48ED
:103F50000668206800EB08052068B04207D9206891
:103F6000A8420BD9B54209D94FF0010906E02068F3
:103F7000A84201D8B54201D94FF001092560B9F135
:103F8000000F03D0A81B0021FFF795FFFFF706FFE6
:103F900007463FB94FF08050AA490860BFF34F8FE2
:103FA000BFF36F8FBDE8F08770B50446002544B1BC
:103FB000FFF7BFFF00212046FFF77DFFFFF7EEFE72
:103FC00005463DB94FF080509E490860BFF34F8FC2
:103FD000BFF36F8F70BD2DE9F04106463746954817
:103FE0000068874201D100241EE001F0E4FA7D69F7
:103FF00001F0F0FA98480068854203D095480068BF
:10400000854201D102240FE09148854205D1B86A6A
:1040100008B9032408E0022406E09248854200D053
:104020000DB9042400E001242046BDE8F08170B5FC
:10403000044601F0C0FA14B97E48006800E020464A
:104040000646F56A01F0C6FA284670BD70B502460C
:1040500000BF5025EFF3118485F31188BFF34F8F14
:10406000BFF36F8F00BF214612B9724C246800E085
:1040700014462346D86A00BF81F3118800BF70BD83
:104080002DE9F04780460D464FF000090A2D00D378
:10409000092501F090FAB8F1000F02D165480068D7
:1040A00000E040460446E66CAE4256D0B5420BD91D
:1040B0006048006884420DD05E480068C06AA8422B
:1040C00008D84FF0010905E05A480068844201D140
:1040D0004FF00109E76AE16AE06C884200D1E562CD
:1040E000E564A06900F0004010B9C5F10A00A061C4
:1040F00007EB87015C4A02EB81016069884201D1CC
:10410000012000E00020E0B1201DFEF77DFF30B966
:104110000120B8404D49096881434C48016094F83A
:104120002C10012088404949096808434749086024
:10413000E16A01EB81014C4A02EB8100211DFEF78F
:104140003DFFB9F1000F07D04FF080503D490860A6
:10415000BFF34F8FBFF36F8F00BF01F03BFABDE895
:10416000F0873F48006818B10120334908601DE01E
:1041700000203149086035480068B0FA80F0C0F18D
:104180001F0101EB8102384B03EB82004268526849
:10419000426000F108024368934202D142685268CB
:1041A00042604268D268234B1A6000BF704770B506
:1041B000054601F000FA15B91E48006800E02846DF
:1041C0000446201DFEF720FF78B9E06A00EB80006E
:1041D000254951F8200040B994F82C10012088405E
:1041E0001A490968814319480160A06A18B104F1AD
:1041F0001800FEF709FF211D1548FEF7DFFE01F04C
:10420000E9F91A48006828B101F0D5F9FFF7DEFC9A
:1042100001F0E0F907480068844235D1134800688E
:1042200030B34FF0805007490860BFF34F8FBFF3A2
:104230006F8F29E04C00002070000020840A0020CD
:104240006C00002004ED00E060000020640000200D
:10425000AC0A002054000020500000207C00002008
:1042600084000020980A00209409002068000020A3
:10427000F7480068F7490968884203D10020F649E9
:10428000086001E0FFF76DFF70BD10B5014600202A
:104290000A46EF4C5369A34201D1012300E00023F9
:1042A00073B1EE4C936AA34201D1012300E00023D5
:1042B00033B9936A0BB9012300E0002303B1012055
:1042C00010BD70B505462C4674B3E34800688442BF
:1042D0002AD001F070F92046FFF7D7FF10B3201D58
:1042E000FEF792FE94F82C1001208840DC49096802
:1042F0000843DB490860E16A01EB8101D94A02EB1E
:104300008100211DFEF75AFED349E06A0968C96A97
:10431000884207D34FF08050D3490860BFF34F8FD6
:10432000BFF36F8F01F056F970BD2DE9F0410646DD
:104330000027344600BF5021EFF3118081F311882C
:10434000BFF34F8FBFF36F8F00BF05462046FFF7C7
:104350009CFF20B3C5480068E0B9BF49E06A09681E
:10436000C96A884200D30127201DFEF74DFE94F84C
:104370002C1001208840BA4909680843B8490860F0
:10438000E16A01EB8101B74A02EB8100211DFEF7D2
:1043900015FE04E004F11801B048FEF70FFE00BF5F
:1043A00085F3118800BF3846BDE8F08170B523E081
:1043B000FFF7BFFDAE48006808B9012000E000200B
:1043C0000546FFF7EBFCBDB901F0F5F8A848C06859
:1043D000C468201DFEF718FE9E480068401E9D49D7
:1043E0000860A4480068401EA249086001F0F2F885
:1043F0002046FFF700FC00BF9E4800680028D7D188
:1044000070BD00BFFFF7D2FFFBF777FFFAE71CB5DF
:10441000994800210B469622CDE9001097A19948B2
:10442000FFF7A4FB0446012C02D100F0F2FE044683
:10443000012C14D100BF502080F31188BFF34F8F9F
:10444000BFF36F8F00BF4FF0FF308F49086001202E
:104450008E49086000208E49086001F08EF81CBD6E
:1044600010B500BF502080F31188BFF34F8FBFF30A
:104470006F8F00BF00208549086001F09BF810BDD8
:104480008349086870470021814A10687047714865
:1044900000687047014611B96F48006800E008469F
:1044A000024602F1340070470246002101E0521C2E
:1044B000491C1078A528FAD0890888B270472DE9E0
:1044C000F04107460C4690461E4617B96248006800
:1044D00000E038460546256005F134006060E86A72
:1044E0002061286BE061686CA060207B032807D105
:1044F000FFF71FFDA86A08B102202073FFF74EFCEA
:10450000E86C60610020A061052E01D0267303E0F5
:104510003846FFF760FD2073B8F1000F04D0286B18
:10452000FFF7C2FF208401E000202084BDE8F08175
:104530002DE9F04707460C4690460026206848B310
:10454000204641684968416000F1080142688A429A
:1045500002D14168496841604168D1F80C9000BFC0
:10456000204641684968416000F1080142688A427A
:1045700002D14168496841604168CD6806EBC600D8
:1045800007EB8001434601222846FFF798FF761C7F
:104590004D45E5D13046BDE8F0872DE9F0410546AF
:1045A0008846164600240A27FFF7C3FC29480068FE
:1045B000804539D300BF7F1E07EB8702294B03EBF1
:1045C000820104EBC40205EB82000122FFF7B0FF79
:1045D0000444002FEFD104EBC40105EB810002225B
:1045E0002C490968FFF7A4FF044404EBC40105EB60
:1045F0008100022228490968FFF79AFF044404EB6E
:10460000C40105EB810004221949FFF791FF04441E
:1046100004EBC40105EB810003220D49FFF788FF7D
:1046200004440EB100203060FFF7B8FB2046BDE81F
:10463000F08170B504460E4614B90748056800E0DD
:10464000254600F0B8FF6E6500F0C4FF70BD0000A5
:10465000AC0A00205C0000204C000020840A0020EE
:10466000640000209409002004ED00E08400002094
:10467000980A0020580000208000002049444C4542
:1046800000000000034400087C00002068000020B7
:1046900060000020500000205400002070B5044647
:1046A00014B9FE48056800E0254600F084FF6E6DF1
:1046B00000F090FF304670BD2DE9F04105460F46F1
:1046C00015B9F648046800E02C46606D20B1384604
:1046D000616D8847064600E000263046BDE8F0815F
:1046E00070B505460C46ED48016818312846FEF7BE
:1046F00071FC01212046FFF7DEFB70BD70B5064658
:104700000C46154644F00040E44909688861E348D6
:10471000016818313046FEF751FC01212846FFF7A9
:10472000CAFB70BD70B506460D461446DB480168ED
:1047300018313046FEF742FC0CB14FF0FF352146F0
:104740002846FFF7B8FB70BD70B50646F068C46830
:1047500004F11800FEF758FCD1480068A8B9201DE4
:10476000FEF752FC94F82C1001208840CD490968CE
:104770000843CC490860E16A01EB8101CA4A02EBB7
:104780008100211DFEF71AFC04E004F11801C7485E
:10479000FEF714FCC149E06A0968C96A884204D975
:1047A00001250120C249086000E00025284670BDAF
:1047B0002DE9F04105460F4647F000402860EC68BF
:1047C0002846FEF721FC201DFEF71EFC94F82C1055
:1047D00001208840B34909680843B2490860E16A8A
:1047E00001EB8101B04A02EB8100211DFEF7E6FBDF
:1047F000AA49E06A0968C96A884204D901260120E9
:10480000AB49086000E000263046BDE8F081A949C8
:1048100009680160A84909684160704770B504469D
:104820000D4600F0C8FEA44802682868401C08B97C
:10483000002619E09F4920680968884204D0606812
:10484000904201D801260FE06068101A296888425A
:1048500009D228686168511A401A28602046FFF77B
:10486000D6FF002600E0012600F0B4FE304670BD01
:1048700001208F4908607047014611B10A46906CCB
:1048800000E00020704708B10246916470472DE9AE
:10489000F041044614B98148006800E0204607460C
:1048A0003D6B2846FFF700FE06463046BDE8F08126
:1048B0007A49086870478149096809B9012005E00B
:1048C0007749096809B9022000E00020704770B5F7
:1048D00005462C46002D4BD07049E06A0968C96A2C
:1048E000884245D2A06900F0004028B96B480068B2
:1048F000C06AC0F10A00A061E16A01EB81016A4A65
:1049000002EB81016069884201D1012000E00020B2
:1049100050B3201DFEF778FB78B9E06A00EB800009
:10492000614951F8200040B994F82C1001208840CA
:104930005C49096881435B48016058480068C06A67
:10494000E06294F82C100120884056490968084319
:1049500054490860E16A01EB8101534A02EB81008E
:10496000211DFEF72BFB03E04C480068C06AE062A3
:1049700070BD70B505462C460026ADB3206D401EB7
:104980002065E16CE06A88422ED0206D60BB201D5E
:10499000FEF73AFB78B9E06A00EB8000424951F833
:1049A000200040B994F82C10012088403D49096846
:1049B00081433C480160E06CE062E06AC0F10A00BB
:1049C000A06194F82C1001208840364909680843FA
:1049D00034490860E16A01EB8101334A02EB81004E
:1049E000211DFEF7EBFA0126304670BD70B5054675
:1049F0000E463146284601F063FC284601F059FC7A
:104A0000044602E020202855641C0E2CFAD3002016
:104A10002855281970BD7FB5054600202870284804
:104A2000006803902649096801EBC101880000F085
:104A3000E2FC0446002C69D0002220460399FFF7CF
:104A4000ACFD03900020029059E0029800EBC000FA
:104A500004EB8000007B012806D0022806D0032842
:104A600006D0042808D105E0522607E0422605E0DA
:104A7000532603E0442601E0002600BF00BF029851
:104A800000EBC00004EB800041682846FFF7AEFF52
:104A90000546029800EBC00014E000004C00002026
:104AA000840000206400002094090020840A002073
:104AB00070000020740000206000002068000020CA
:104AC0005C00002004EB80008068029901EBC101CA
:104AD00004EB8101098CCDE90010029800EBC000C5
:104AE00004EB80003246EFA10369284601F030FF55
:104AF000284601F0DEFB05440298401C0290DDE9E7
:104B000002018842A1D3204600F0D8FC7FBDE949CC
:104B100009688869E7490968C96AC1F10A01E54A73
:104B2000126891617047E348006830B1E149096853
:104B300001F15000096D491C0160DE4800687047B2
:104B400070B506460D4600F036FDDA480068806D07
:104B500088B90120D749096881F85C005DB101215D
:104B60002846FFF7A8F94FF08050D3490860BFF3FB
:104B70004F8FBFF36F8F00F02DFD00F01CFDCD486F
:104B80000068846D4CB126B10020CA490968886567
:104B900003E0601EC749096888650020C5490968A7
:104BA00081F85C0000F016FD204670BD2DE9F04153
:104BB0000746884614461D4600F0FDFCBD480068C7
:104BC00090F85C00022818D0BA49096801F1580031
:104BD000896DB94301600120B649096881F85C001C
:104BE0005DB101212846FFF766F94FF08050B249C8
:104BF0000860BFF34F8FBFF36F8F00F0EBFC00F046
:104C0000DAFC1CB1AB480068806D2060A9480068E0
:104C100090F85C00012801D1002608E0A549096848
:104C200001F15800896D21EA080101600126002088
:104C3000A049096881F85C0000F0CCFC3046BDE872
:104C4000F0812DE9F04781460D4616461F464FF08C
:104C5000010A4C4600F0AFFC0FB1A06D386094F82B
:104C60005C80022084F85C00052E17D2DFE806F095
:104C70001503070B0D00A06D2843A0650EE0A06D85
:104C8000401CA0650AE0A56508E0B8F1020F01D05C
:104C9000A56501E04FF0000A00E000BF00BFB8F1D9
:104CA000010F22D1201DFEF7AFF994F82C1001203E
:104CB000884082490968084380490860E16A01EB3D
:104CC00081017F4A02EB8100211DFEF777F97949C6
:104CD000E06A0968C96A884207D94FF0805076496E
:104CE0000860BFF34F8FBFF36F8F00F073FC504627
:104CF000BDE8F0872DE9F84F82460D4616461F465F
:104D0000DDF828B001200090544600BF5021EFF399
:104D1000118081F31188BFF34F8FBFF36F8F00BFF6
:104D200081460FB1A06D386094F85C80022084F851
:104D30005C00052E17D2DFE806F01503070B0D0007
:104D4000A06D2843A0650EE0A06D401CA0650AE0A0
:104D5000A56508E0B8F1020F01D0A56501E00020CB
:104D6000009000E000BF00BFB8F1010F2DD1554801
:104D70000068A8B9201DFEF747F994F82C1001200F
:104D800088404E49096808434C490860E16A01EBD4
:104D900081014B4A02EB8100211DFEF70FF904E06F
:104DA00004F118014848FEF709F94249E06A096828
:104DB000C96A884209D9BBF1000F03D00120CBF8A2
:104DC000000002E001204149086000BF89F311881A
:104DD00000BF0098BDE8F88F2DE9F04105460E466A
:104DE0002C4600BF5021EFF3118081F31188BFF3EF
:104DF0004F8FBFF36F8F00BF074694F85C8002208F
:104E000084F85C00A06D401CA065B8F1010F2AD1A8
:104E10002C480068A8B9201DFEF7F6F894F82C106D
:104E20000120884025490968084324490860E16A4F
:104E300001EB8101224A02EB8100211DFEF7BEF841
:104E400004E004F118012048FEF7B8F81949E06AB7
:104E50000968C96A884206D916B10120306002E0AB
:104E600001201A49086000BF87F3118800BFBDE820
:104E7000F08170B5054615B90E48006800E0284677
:104E8000064600F098FB96F85C00022804D100204A
:104E900086F85C00012400E0002400F09BFB204623
:104EA00070BD00000925630925750925750925755B
:104EB0000D0A00004C00002004ED00E0640000201A
:104EC0009409002084000020840A00207000002043
:104ED0002DE9F04104460D4616461F464FF00008E6
:104EE00065602461B5420CD8F01BA169884202D3E9
:104EF0004FF0010811E0211DF7480068FEF76AF83D
:104F00000BE0BE4204D2BD4202D34FF0010804E0E0
:104F1000211DF2480068FEF75DF84046BDE8F081CB
:104F20002DE9FE4305460C4616461F46DDF828804F
:104F30004FF00009EA48006810B30094019602950A
:104F4000062C15DAFFF7B7FC022808D100234246E9
:104F50006946E3480068FEF79AF9814610E00023AD
:104F60001A466946DE480068FEF791F9814607E077
:104F700000233A466946DA480068FEF752FB81464C
:104F80004846BDE8FE832DE9F84326E0D348006893
:104F9000C0680568D1480068C068C468201DFEF775
:104FA00033F82046616A8847E069012815D1A06975
:104FB0004619AE4207D966602461211DC7480068C2
:104FC000FEF708F809E0002003462A460146009053
:104FD0002046FFF7A5FF804600BFC0480068006874
:104FE00008B9012000E000200028CFD0BB480768A6
:104FF000B9480068B9490860B7480760BDE8F88358
:1050000070B50446FFF73CFA0546B648006885428D
:1050100004D2FFF7B8FF0120206001E000202060EB
:10502000B0480560284670BD70B586B04DE0039865
:1050300000284ADB059C606908B9012000E00020D7
:1050400010B9201DFDF7E0FF02A8FFF7D9FF0546C4
:1050500003980A2837D2DFE800F009050725273230
:105060000608262800BF00BF00BF00BF0498A26941
:10507000811803462A462046FFF72AFF88B12046BA
:10508000616A8847E06901280BD1002000900498EC
:10509000A1694218002319462046FFF741FF064642
:1050A00000BF11E000BF0FE000BF0498A061A0693D
:1050B00041192B462A462046FFF70AFF04E0204606
:1050C00000F0FCF900E000BF00BF00231A4603A96E
:1050D00083480068FEF7D0F90028A8D106B070BD5B
:1050E000F8B505460E467D480068C068C468201DB6
:1050F000FDF78AFFE069012811D1A06941192B460B
:1051000032462046FFF7E4FE48B1002003462A4617
:10511000014600902046FFF703FF074600BF2046E8
:10512000616A8847F8BDF8B505460C46FEF701FFF1
:105130006846FFF765FF0646009820BB44B9B542B4
:1051400006D8FEF72BFE31462846FFF7C9FF1CE0C4
:105150003CB161480068006808B9012000E0002007
:105160000446A91B22465E480068FEF7D1FBFEF705
:1051700015FE50B94FF080505B490860BFF34F8F68
:10518000BFF36F8F01E0FEF709FEF8BD0146534AF9
:10519000126812680AB9012200E000220A600A6857
:1051A00022B94E4A1268D268106800E000207047A9
:1051B00008B500BF6846FFF7E9FF0446204600999E
:1051C000FFF7B1FFFFF730FFF4E710B500F0F3F998
:1051D00043480068D0B94548FDF7E0FE4448FDF774
:1051E000DDFE42483D49086041483B4908600022D5
:1051F0000C211420FDF770FF39490860084600684B
:1052000020B13CA136480068FEF75CFB00F0E2F9F3
:1052100010BD1CB50024FFF7D8FF3148006850B11D
:105220003648012100239622CDE9001034A13648EA
:10523000FEF79CFC044620461CBD2DE9F0470546C0
:105240000E4617469846DDE908945CB1FFF7BDFFAE
:105250002560A661E761C4F82080C4F82490201D71
:10526000FDF7A9FEBDE8F0872DE9FC4705460E468F
:1052700017469846DDF828902C2000F0BCF804462C
:105280003CB143463A4631462846CDE90094FFF703
:10529000D4FF2046BDE8FC871848006870470146E7
:1052A0000A469069704701460A46506870470146B1
:1052B0000A461068704770B50446264600F07BF930
:1052C000706908B9012000E0002080F0010500F0BD
:1052D00081F9284670BD00008C0000208800002065
:1052E000900000209800002004ED00E0C00A00209B
:1052F000D40A0020546D7251000000009400002078
:10530000546D722053766300B151000870B50446A5
:10531000264600F050F9356A00F05CF9284670BD69
:1053200070B504460D46264600F045F9356200F09A
:1053300051F970BD10B50146744800E0006803687B
:105340008B42FBD30246436813448B4204D143682B
:105350004C682344436001460A464B681344046882
:10536000A34211D16A4C03682468A34208D04B6859
:105370000468646823444B6003681B680B6005E0A5
:10538000634B1B680B6001E003680B60884200D030
:10539000016010BD30B54FF4F0435E4800F00704E3
:1053A0002CB1C01D20F007005A4C041B1B1B0246E9
:1053B000564C22600024554D6C60D018083820F0FF
:1053C0000700534C20600024514D2D686C60504DF7
:1053D0002D682C601146441A4C604D4C24680C60BA
:1053E0004D4D4C682C604D4D4C682C604FF0004486
:1053F0004B4D2C6030BD2DE9F04105464FF00008C3
:10540000FEF797FD4248006808B9FFF7C3FF44481C
:1054100000682840002847D145B1083505F007004D
:1054200020B105F00700C0F108000544002D3BD075
:105430003A480068854237D8344E3046046801E067
:10544000264624686068A84202D220680028F7D166
:105450002F480068844227D0306800F1080820688F
:1054600030606068401B102807D967196068401BCE
:10547000786065603846FFF75DFF28496068096815
:10548000081A2649086008460068234909688842C6
:1054900003D22248006820490860214960680968F1
:1054A0000843606000202060FEF778FCB8F1000F30
:1054B00001D100F0B9FB4046BDE8F08170B5064669
:1054C0003546D6B1083D2C46154960680968084044
:1054D00098B1206888B9124960680968884360609B
:1054E000FEF727FD0D496068096808440B4908600C
:1054F0002046FFF71FFFFEF751FC70BD074800680C
:105500007047054800687047704700009C00002005
:10551000A4000020E80A0020AC000020A800002021
:10552000B000002000BF502080F31188BFF34F8FE0
:10553000BFF36F8F00BF00BFFEE7001F4FF0807307
:105540000360001F21F001030360001F344B036060
:1055500014380260001F6FF00203036020387047A8
:10556000304800684FF47A71B0FBF1F0401E4FF004
:10557000E021486107200861704710B52A4800689B
:1055800040F47000284908600846006840F0704008
:105590000860FFF7E5FF002024490860FAF728FEBD
:1055A0002348006840F0404021490860FAF710FEA7
:1055B000002010BD704700BF502080F31188BFF35A
:1055C0004F8FBFF36F8F00BF18480068401C17490A
:1055D0000860704715480068401E14490860084676
:1055E000006820B9002080F3118800BF00BF704719
:1055F00010B500BF502080F31188BFF34F8FBFF369
:105600006F8F00BFFEF753FB20B14FF0805006496B
:105610001C39086000BF002080F3118800BF10BD56
:10562000255500080800002020ED00E0B40000200F
:1056300034EF00E00246134610E010782A2805D027
:105640001078202802DB10787A2801DDFF207047CF
:1056500010782C2801D1481EC1B2521C0029ECD16F
:10566000D01AC0B2F3E7F0B502460B460120002184
:1056700008E000270646A6FB025C01FB02C400FB13
:10568000074128461C1EA3F10105EBB2F1D1F0BD84
:105690002DE9F34F82B083465C460026B1460020D8
:1056A0000190824600902FE020782D2804D10098A8
:1056B00040F002000090641C20782C2802D0207852
:1056C0002A2800D121E020782E2805D1009840F02A
:1056D00001000090641C09E02078392802DC207861
:1056E000302803DA0020019082460EE0009800F096
:1056F000010020B10AF1010000F0FF0A03E0019867
:10570000401CC0B20190641CCEE700BF009800F0BE
:10571000020008B10BF1010B00250FE00198401EBB
:10572000401BC1B20A20FFF79EFF1BF8051030395D
:10573000A0FB0101861905F10100C5B2019885425F
:10574000ECDBBAF1070F01DD4FF0070A039880F890
:1057500000A0002513E0AAF10100401BC1B20A20FD
:10576000FFF781FF0199491C29441BF801103039CA
:10577000A0FB010110EB090905F10100C5B2554577
:10578000E9DB51460A20FFF76EFF00220B46A0FB23
:10579000061C03FB06C300FB023011EB090740EBBC
:1057A0000208009800F0020010B17F4262EB080886
:1057B0003846414604B0BDE8F08F2DE9F34F2DED9A
:1057C0000A8B83B0804600BF0027ADA10E9800F081
:1057D0005EFDB0F1000904D103B0BDEC0A8BBDE859
:1057E000FC8F02214846FFF725FF0446FF2C3FD0DF
:1057F00009EB040002A9FFF74BFF05460E469DF892
:105800000800801CC1B20A20FFF72DFF07463A4668
:1058100000232846314600F0E5FC82460AFB07F1EA
:10582000B5EB010B9DF808104FF00A00FFF71BFFC6
:10583000CDE9000100F0F3FE41EC1A0B584600F0F0
:10584000E1FE9FED900B53EC102B00F05BFE53EC50
:105850001A2B00F057FE41EC180B504600F0C1FE29
:1058600053EC182B00F035FDC8F80000C8F8041000
:1058700004214846FFF7DEFE0446FF2C3FD009EB2B
:10588000040002A9FFF704FF05460E469DF8080034
:10589000801CC1B20A20FFF7E6FE07463A46002305
:1058A0002846314600F09EFC82460AFB07F1B5EB24
:1058B000010B9DF808104FF00A00FFF7D4FECDE968
:1058C000000100F0ACFE41EC1A0B584600F09AFEC5
:1058D0009FED6C0B53EC102B00F014FE53EC1A2BC5
:1058E00000F010FE41EC180B504600F07AFE53EC2D
:1058F000182B00F0EEFCC8F80800C8F80C100621C0
:105900004846FFF797FE0446FF2C06D009EB04003B
:1059100002A9FFF7BDFE88F8100007214846FFF7EF
:1059200089FE0446FF2C06D009EB040002A9FFF70C
:10593000AFFE88F81100012088F81A0000BF4BE77D
:105940002DE9F04F2DED0C8B83B005468B460026DC
:1059500000274EA1584600F09AFCB0F1000904D18E
:1059600003B0BDEC0C8BBDE8F08F02214846FFF779
:1059700061FE0446FF2C38D009EB040002A9FFF7B2
:1059800087FE86B29DF808100A20FFF76CFE87B2EA
:1059900096FBF7F01FFA80F808FB17601FFA80FAF1
:1059A0009DF808100A20FFF75EFECDE9000100F027
:1059B00036FE41EC1B0B504600F024FE9FED340BED
:1059C00053EC102B00F02CFD53EC1B2B00F09AFD38
:1059D00041EC190B404600F015FE53EC192B00F07A
:1059E00078FC00F03BFEC5F812000120A87600BF4D
:1059F000B6E72DE9F0412DED048B82B005460E4649
:105A00004FF0000824A1304600F041FC071E04D1ED
:105A100002B0BDEC048BBDE8F08107213846FFF7EA
:105A200009FE0446FF2C12D0381901A9FFF730FEF9
:105A30001FFA80F8404600F0E5FD9FED180B53EC8F
:105A4000102B00F05FFD00F009FEC5F8160000BF46
:105A5000DEE770B504460D46A07E18B929462046FB
:105A6000FFF7ABFEA07E18B929462046FFF768FF76
:105A7000A07E18B929462046FFF7BBFF70BD000085
:105A8000474741000000000000004E4054524100D2
:105A9000000000000000F03F5654470000000000E6
:105AA0000020AC4030B589B005460C4603208DF887
:105AB000040001208DF80600224629460DF107005A
:105AC00000F0C1FB601CC0B28DF8050001A800F019
:105AD000E6FA09B030BD86B0002443E00520FEF7A9
