:020000040800F2
:100000008899002085540008C50300089D01000858
:10001000F5230008F9230008FD2300080000000074
:10002000000000000000000000000000C101000806
:100030000124000800000000150200082123000828
:100040009F5400089F5400089F5400089F540008C4
:100050009F5400089F5400084725000857250008B2
:100060006725000877250008872500089F540008A9
:100070009F5400089F5400089F5400089F54000894
:100080009F5400089F5400089F5400089F54000884
:100090009F5400089F5400089F5400089F250008A3
:1000A0009F5400089F5400089F5400089F54000864
:1000B0009F5400089F5400089F5400089F54000854
:1000C0009F5400089F5400089F5400089F54000844
:1000D0009F5400089F540008FF4A0008E74C00089E
:1000E000172600089F5400089F5400089F540008DA
:1000F0009F5400089F5400089F5400089F54000814
:100100009F540008B54600089F5400089F540008FB
:100110006B4900089F5400089F5400089F54000832
:100120009F5400089F5400089F5400089F540008E3
:100130009F5400089F5400089F5400089F540008D3
:100140009F5400089F5400089F5400089F540008C3
:100150009F540008032400089F5400089F5400087F
:100160009F5400089F5400089F5400089F540008A3
:100170009F5400089F5400089F5400089F54000893
:100180009F5400089F540008DFF80CD012F00EFEB8
:100190000048004725030008889900201EF0040F3E
:1001A0000CBFEFF30880EFF3098002F0D2B8000033
:1001B00030BF72B6704762B6704780F308887047E8
:1001C0002A4B19680868B0E8F04F80F30988BFF33C
:1001D0006F8F4FF0000080F311887047000000001F
:1001E00006480068006880F3088862B661B6BFF30D
:1001F0004F8FBFF36F8F00DF00BF00BF08ED00E03F
:10020000DFF80C00016841F470010160704700BF25
:1002100088ED00E0EFF30980BFF36F8F134B1A688E
:100220001EF0100F08BF20ED108A20E9F04F10607B
:1002300008B44FF0500080F31188BFF34F8FBFF325
:100240006F8F09F0CEFF4FF0000080F3118808BCDB
:1002500019680868B0E8F04F1EF0100F08BFB0EC46
:10026000108A80F30988BFF36F8F70476400002005
:10027000EFF30580704700001CB504460121080318
:1002800005F08AFF0BF0D7F90020042103469622DF
:10029000CDE900102FA1324809F0A8FC002004216C
:1002A00003469622CDE900102EA1304809F09EFCAD
:1002B000002002210346C822CDE900102CA12E48BF
:1002C00009F094FC002002210346C822CDE9001069
:1002D0002AA12D4809F08AFC0020032103464FF48F
:1002E0009672CDE9001029A12B4809F07FFC00206F
:1002F00001210346A022CDE9001028A1284809F0D9
:1003000075FC0020042103469622CDE9001025A1AA
:10031000274809F06BFC2748006809F0B5FC0BF092
:1003200099F91CBD1CB504F09FFE22480121002351
:100330000A02CDE9001020A1AFF2C30009F056FC7B
:100340000AF0A5F800201CBD10B501F0F7FF044627
:1003500030BF10BD41524D525441534B000000007C
:10036000AF21010841524D5441534B00B9220108BD
:100370004D41534C494E4B002B1F010841544B50EB
:100380005258414E4C000000871D01085354414211
:10039000494C495A4552000017FA0008494F0000DD
:1003A0008BFC0008434F4E4649475F5441534B0076
:1003B00027B800080000002073746172745F7461D4
:1003C000736B0000704700000CB500200190009096
:1003D0007648006840F480307449086000BF734874
:1003E000006800F4003000900198401C01900098D3
:1003F00018B90198B0F5A04FF1D16C48006800F42D
:10040000003010B10120009001E000200090009821
:10041000012846D165484030006840F0805063496B
:10042000403108606248006840F44040604908601C
:100430005E48083000685D49083108600846006879
:1004400040F4004008600846006840F4A05008608E
:100450005848091F0860081F006840F08070091F95
:10046000086000BF5148006800F000700028F9D013
:1004700040F20570504908604C480830006820F090
:1004800003004A49083108600846006840F002004D
:10049000086000BF45480830006800F00C000828DC
:1004A000F8D10CBD10B54548006840F470004349D0
:1004B00008603E48006840F001003C4908600020A8
:1004C0003A4908310860394800683D4908403749D1
:1004D00008603C48091D0860081F006820F480205F
:1004E000091F0860002031490C310860FFF76CFFDC
:1004F0004FF0006031498039086010BD70B50020B0
:100500000022022300240221284D08352D6805F021
:100510000C0020B1042806D0082834D107E02A4D69
:100520002A4E356033E02A4D284E35602FE01F4DAE
:100530002D1D2D68C5F380541C4D2D1D2D6805F013
:100540003F0154B1224DB5FBF1F5184E361D36680A
:10055000C6F3881605FB06F209E01B4DB5FBF1F565
:10056000124E361D3668C6F3881605FB06F20F4D8F
:100570002D1D2D68C5F301456D1C6B00B2FBF3F515
:10058000124E356003E0104D104E356000BF00BFC5
:10059000064D08352D68C5F303150E4E705D0B4DE5
:1005A0002D68C540094E356070BD0000003802401E
:1005B0000070004008544007003C024088ED00E015
:1005C000FFFFF6FE103000240024F4000400002099
:1005D00000127A00080000201CB50121502005F00F
:1005E000DBFD1C20009001208DF8040000208DF818
:1005F00006008DF8070003208DF8050069460C48B9
:1006000005F02CFB4FF4007000906946094805F096
:1006100025FB4FF40071074805F09CFB18210448A6
:1006200005F098FB0421024805F096FB1CBD000074
:1006300000100240001802401CB50121402005F0C6
:10064000ABFD8020009001208DF8040000208DF883
:10065000060003208DF8050002208DF8070069468A
:10066000034805F0FBFA8021014805F075FB1CBD2D
:1006700000180240F8B504460D4617461E468DF890
:1006800000408DF801508DF802708DF803606946C6
:10069000002007F0FDFBF8BDF8B504460D461746EF
:1006A0001E468DF802708DF801508DF800608DF8AF
:1006B00003406946002007F089FCF8BD3EB541F6CD
:1006C000FF740121080705F0B0FD012008F03DF995
:1006D000002008F039F8B0F5A04F30D0012005F027
:1006E000F8FB04E0601C84B20A2008F058FC4120AA
:1006F00005F0A8FB0028F5D004B93EBD4FF480708A
:1007000005F0E8FC012005F000FD7F200190FF20AE
:10071000029000200090684607F01FFB00231A4655
:1007200026211620FFF7A6FF0423152209211120F8
:10073000FFF7B2FF4FF4A041002007F0F8FF00BF21
:10074000DBE7000001B5BDF80000F749088008BDEF
:1007500001B5BDF80000F449891C088008BD08B542
:10076000F148801C00880090BDF8000008BDEE4AEA
:100770001080921C1180704710B504462046FFF788
:10078000E1FF052008F0E9FBFFF7E9FF10BDE748AE
:100790000089E54908807047E349891C0880704753
:1007A00030B5014601F01F04C1F34513CA0AE50242
:1007B00005EB43151544A8B230BD00BF011EA0F1E2
:1007C0000102D0B2FAD1704710B502460C46D749A3
:1007D0004889FFF7B7FF1012FFF7BAFFD3494989DD
:1007E000491C88B2FFF7AEFFD0B2FFF7B1FFCF4987
:1007F0008889FFF7A7FF2012FFF7AAFFCB49898955
:10080000491C88B2FFF79EFFE0B2FFF7A1FF10BDC1
:100810002DE9F04104460D4600260027B046C348A6
:100820000088A04203DDC1484088A84202DC0020C5
:10083000BDE8F08129462046FFF7C6FF4FF4385047
:10084000FFF780FFFFF78BFF06460220FFF7B5FF9B
:10085000FFF785FF06460220FFF7AFFFFFF77FFF98
:100860008046F7B24FF6FF7000EA0727F012C00289
:10087000B91240EA411040EAE820D9E700B54FF448
:100880002450FFF75FFF00BD00B54FF42050FFF785
:1008900059FF00BDF0B5054600240027A348807924
:1008A000012818D1082D15D2DFE805F00406080A42
:1008B0000C0E101206250DE007250BE0042509E0BB
:1008C000052507E0012505E0002503E0032501E0FB
:1008D000022500BF00BF082D1CD2DFE805F004068A
:1008E000090C0F12151800BF14E044F0800411E049
:1008F00044F040040EE044F0C0040BE044F0200457
:1009000008E044F0600405E044F0A00402E044F094
:10091000E00400BF00BF4FF4585721463846FFF7A8
:1009200026FF04F0200068B1804800887F4949888C
:10093000884214DA7D48068840887C490880084649
:1009400046800CE07948008878494988884206DD6D
:10095000764806884088754908800846468073496D
:100960004889FFF7EFFE0020FFF7F2FE6F49498943
:10097000491C88B2FFF7E6FE0020FFF7E9FE6B494D
:100980004989891C88B2FFF7DDFE68490988491E3C
:10099000C1F30F20FFF7DCFE64494989C91C88B206
:1009A000FFF7D0FE61490978491EC8B2FFF7D0FEB3
:1009B0005E498889FFF7C6FE0020FFF7C9FE5B4944
:1009C0008989491C88B2FFF7BDFE0020FFF7C0FEF1
:1009D00056498989891C88B2FFF7B4FE5349498872
:1009E000491EC1F30F20FFF7B3FE50498989C91C86
:1009F00088B2FFF7A7FE4D498978491EC8B2FFF7B4
:100A0000A7FEF0BD30B504460D4629462046FFF747
:100A1000DBFEFFF7BCFE464800884349891C08807E
:100A200030BD30B504460D4640494889FFF78AFE7F
:100A30002012FFF78DFE3D494989491C88B2FFF716
:100A400081FEE0B2FFF784FE38498889FFF77AFE1D
:100A50002812FFF77DFE35498989491C88B2FFF7C6
:100A600071FEE8B2FFF774FE304800892E49088015
:100A7000881C028030BD70B52DED048B0446BE206D
:100A8000FFF760FE0520FFF763FE204611F04BFFE5
:100A900041EC190B9FED270B53EC102B11F051FE7D
:100AA00041EC180B11F07FFF85B22846FFF750FE8E
:100AB0000120FFF74DFEFF20FFF74AFE0020FFF761
:100AC00047FE0020FFF744FEBDEC048B70BD10B55F
:100AD000044694B90020154988714FF430500881BC
:100AE0004FF4285048814FF42C5088814FF4F07017
:100AF00008804FF44870488011E001200B4988714C
:100B00004FF4305008814FF4285048814FF42C5056
:100B100088814FF4487008804FF4F07048800020BE
:100B2000FFF7B8FE10BD0000FE1F006CA0040020FF
:100B30001800002066666666666604402DE9F0418E
:100B400004460D461E46A018401E87B2A819401E36
:100B50001FFA80F8FE494889FFF7F4FD2012FFF7DD
:100B6000F7FDFB494989491C88B2FFF7EBFDE0B26C
:100B7000FFF7EEFDF6494989891C88B2FFF7E2FDCF
:100B80003812FFF7E5FDF2494989C91C88B2FFF721
:100B9000D9FDF8B2FFF7DCFDED498889FFF7D2FDFA
:100BA0002812FFF7D5FDEA498989491C88B2FFF769
:100BB000C9FDE8B2FFF7CCFDE5498989891C88B2F7
:100BC000FFF7C0FD4FEA2820FFF7C2FDE049898901
:100BD000C91C88B2FFF7B6FD08F0FF00FFF7B8FDAB
:100BE000BDE8F08170B504460026D94805884088E4
:100BF000454300210846FFF7E7FDFFF7C8FD00BFAA
:100C000002E0D4480480761CAE42FAD370BD00B531
:100C1000A1B0002020900121782005F0BDFA01212B
:100C2000084605F0F1FA4FF480601E9001208DF81F
:100C30007C0000208DF87E0002208DF87D000120D0
:100C40008DF87F001EA9C44805F008F84CF23370F7
:100C50001E9002208DF87C0000208DF87E0003207D
:100C60008DF87D0001208DF87F001EA9BB4804F09F
:100C7000F5FF4FF680701E9002208DF87C0000205A
:100C80008DF87E0003208DF87D0001208DF87F0017
:100C90001EA9B34804F0E2FF04201E9002208DF844
:100CA0007C0000208DF87E0003208DF87D0001205F
:100CB0008DF87F001EA9AB4804F0D0FF4FF48050A0
:100CC0001E9002208DF87C0000208DF87E0003200D
:100CD0008DF87D0001208DF87F001EA9A14804F049
:100CE000BDFF0C2200219D4805F043F80C22012194
:100CF0009A4805F03EF80C220421984805F039F88E
:100D00000C220521954805F034F80C22082193485F
:100D100005F02FF80C220921904805F02AF80C2242
:100D20000A218E4805F025F80C220E218B4805F08B
:100D300020F80C220F21894805F01BF80C2207210E
:100D4000874805F016F80C220821854805F011F8AF
:100D50000C220921824805F00CF80C220A21804857
:100D600005F007F80C220B217D4805F002F80C2253
:100D700011467B4804F0FDFF0C220D21784804F059
:100D8000F8FF0C220E21764804F0F3FF0C220F210D
:100D9000734804F0EEFF0C220221724804F0E9FFD0
:100DA0000C2211466F4804F0E4FF0F200890002049
:100DB00009903C200A9000200B900C900D900E9012
:100DC0000920019000200290082003900020049048
:100DD00005900690079006200F900020109011902B
:100DE00010201290002013901590149016901790D8
:100DF0004FF480501890002019904FF480401A90C2
:100E000000201B9008A81C9001A81D900FA804F0BA
:100E1000D6FB0121062004F05DFC322008F0BFF86B
:100E200001210020FFF7A3FC322008F0B8F80020D1
:100E3000FFF7A2FC464988804FF45A40FFF782FC36
:100E4000FFF78DFC424988804FF45B40FFF77AFC46
:100E5000FFF785FC3E498880084680884FF6FF7181
:100E600001EA00203A4988804FF45C40FFF76AFCB1
:100E7000FFF775FC364989880843354988803A4828
:100E8000006820F00F004FF02041C1F81C01084617
:100E9000D0F81C0120F47060C1F81C010846D0F89D
:100EA0001C0140F00300C1F81C010846D0F81C01E9
:100EB00040F40070C1F81C0155214FF47040FFF759
:100EC00056FCAA214FF20100FFF751FC52214FF2CC
:100ED0000200FFF74CFC08214FF20300FFF747FC2C
:100EE00001214FF20400FFF742FC0D214FF4304086
:100EF000FFF73DFC0D214BF20100FFF738FC0D21FF
:100F00004BF20200FFF733FC34214FF43640FFF779
:100F10002EFC34214BF20160FFF729FC34214BF207
:100F20000260FFF724FC0D214FF43140FFF71FFC56
:100F30000D214BF20110FFF71AFC0D214BF20210AC
:100F4000FFF715FC34214FF43740FFF710FC0DE09C
:100F5000A00400200020006C00140240000C02409D
:100F600000100240001802401C0100A034214BF286
:100F70000170FFF7FCFB34214BF20270FFF7F7FB27
:100F800000214FF43240FFF7F2FB00214BF2012029
:100F9000FFF7EDFB00214BF20220FFF7E8FB2421D5
:100FA0004FF43840FFF7E3FB24214BF60100FFF735
:100FB000DEFB24214BF60200FFF7D9FB01214FF4A1
:100FC0003F40FFF7D4FB0F214FF43340FFF7CFFB37
:100FD0000F214BF20130FFF7CAFB0F214BF2023019
:100FE000FFF7C5FB34214FF43940FFF7C0FB342134
:100FF0004BF60110FFF7BBFB34214BF60210FFF755
:10100000B6FB08214FF43540FFF7B1FB08214BF246
:101010000150FFF7ACFB08214BF20250FFF7A7FB92
:1010200003214FF44240FFF7A2FB24214FF43A4042
:10103000FFF79DFB24214BF60120FFF798FB2421AD
:101040004BF60220FFF793FB00214FF43C40FFF7E3
:101050008EFB78214BF60140FFF789FB00214BF610
:101060000240FFF784FB00214FF43D40FFF77FFB78
:1010700078214BF60150FFF77AFB00214BF6025026
:10108000FFF775FB00214FF43E40FFF770FB642132
:101090004BF60160FFF76BFB00214FF45140FFF767
:1010A00066FB33214DF20110FFF761FB00214DF289
:1010B0000210FFF75CFB34214DF20310FFF757FBE2
:1010C00000214DF20410FFF752FB3A214DF20510BA
:1010D000FFF74DFB00214DF20610FFF748FB4A21B8
:1010E0004DF20710FFF743FB00214DF20810FFF708
:1010F0003EFB5C214DF20910FFF739FB00214DF258
:101100000A10FFF734FB81214DF20B10FFF72FFB84
:1011100000214DF20C10FFF72AFBA6214DF20D1015
:10112000FFF725FB00214DF20E10FFF720FBE52114
:101130004DF20F10FFF71BFB01214DF21010FFF7CE
:1011400016FB13214DF21110FFF711FB01214DF297
:101150001210FFF70CFB54214DF21310FFF707FBA1
:1011600001214DF21410FFF702FB82214DF2151000
:10117000FFF7FDFA01214DF21610FFF7F8FACA2128
:101180004DF21710FFF7F3FA02214DF21810FFF796
:10119000EEFA00214DF21910FFF7E9FA02214DF2A3
:1011A0001A10FFF7E4FA01214DF21B10FFF7DFFAE6
:1011B00002214DF21C10FFF7DAFA34214DF21D1016
:1011C000FFF7D5FA02214DF21E10FFF7D0FA672182
:1011D0004DF21F10FFF7CBFA02214DF22010FFF75E
:1011E000C6FA84214DF22110FFF7C1FA02214DF217
:1011F0002210FFF7BCFAA4214DF22310FFF7B7FA33
:1012000002214DF22410FFF7B2FAB7214DF225105A
:10121000FFF7ADFA02214DF22610FFF7A8FACF2111
:101220004DF22710FFF7A3FA02214DF22810FFF725
:101230009EFADE214DF22910FFF799FA02214DF2B4
:101240002A10FFF794FAF2214DF22B10FFF78FFAD4
:1012500002214DF22C10FFF78AFAFE214DF22D10DB
:10126000FFF785FA03214DF22E10FFF780FA1021C7
:101270004DF22F10FFF77BFA03214DF23010FFF7EC
:1012800076FA33214DF23110FFF771FA03214DF256
:101290003210FFF76CFA6D214DF23310FFF767FA49
:1012A00000214FF45240FFF762FA33214DF2012042
:1012B000FFF75DFA00214DF20220FFF758FA3421C2
:1012C0004DF20320FFF753FA00214DF20420FFF7FF
:1012D0004EFA3A214DF20520FFF749FA00214DF26E
:1012E0000620FFF744FA4A214DF20720FFF73FFAA4
:1012F00000214DF20820FFF73AFA5C214DF2092057
:10130000FFF735FA00214DF20A20FFF730FA81216C
:101310004DF20B20FFF72BFA00214DF20C20FFF7C6
:1013200026FAA6214DF20D20FFF721FA00214DF2F9
:101330000E20FFF71CFAE5214DF20F20FFF717FAF8
:1013400001214DF21020FFF712FA13214DF2112066
:10135000FFF70DFA01214DF21220FFF708FA542190
:101360004DF21320FFF703FA01214DF21420FFF78D
:10137000FEF982214DF21520FFF7F9F901214DF216
:101380001620FFF7F4F9CA214DF21720FFF7EFF905
:1013900002214DF21820FFF7EAF900214DF2192041
:1013A000FFF7E5F902214DF21A20FFF7E0F90121DC
:1013B0004DF21B20FFF7DBF902214DF21C20FFF755
:1013C000D6F934214DF21D20FFF7D1F902214DF25B
:1013D0001E20FFF7CCF967214DF21F20FFF7C7F958
:1013E00002214DF22020FFF7C2F984214DF2212085
:1013F000FFF7BDF902214DF22220FFF7B8F9A42131
:101400004DF22320FFF7B3F902214DF22420FFF71C
:10141000AEF9B7214DF22520FFF7A9F902214DF2CF
:101420002620FFF7A4F9CF214DF22720FFF79FF9DF
:1014300002214DF22820FFF79AF9DE214DF22920F2
:10144000FFF795F902214DF22A20FFF790F9F221DA
:101450004DF22B20FFF78BF902214DF22C20FFF7E4
:1014600086F9FE214DF22D20FFF781F903214DF27F
:101470002E20FFF77CF910214DF22F20FFF777F98E
:1014800003214DF23020FFF772F933214DF2312064
:10149000FFF76DF903214DF23220FFF768F96D2156
:1014A0004DF23320FFF763F900214FF45340FFF76B
:1014B0005EF933214DF20130FFF759F900214DF269
:1014C0000230FFF754F934214DF20330FFF74FF9A2
:1014D00000214DF20430FFF74AF93A214DF2053070
:1014E000FFF745F900214DF20630FFF740F94A2198
:1014F0004DF20730FFF73BF900214DF20830FFF7BE
:1015000036F95C214DF20930FFF731F900214DF237
:101510000A30FFF72CF981214DF20B30FFF727F944
:1015200000214DF20C30FFF722F9A6214DF20D30CB
:10153000FFF71DF900214DF20E30FFF718F9E521F4
:101540004DF20F30FFF713F901214DF21030FFF784
:101550000EF913214DF21130FFF709F901214DF277
:101560001230FFF704F954214DF21330FFF7FFF862
:1015700001214DF21430FFF7FAF882214DF21530B7
:10158000FFF7F5F801214DF21630FFF7F0F8CA2108
:101590004DF21730FFF7EBF802214DF21830FFF74C
:1015A000E6F800214DF21930FFF7E1F802214DF283
:1015B0001A30FFF7DCF801214DF21B30FFF7D7F8A6
:1015C00002214DF21C30FFF7D2F834214DF21D30CC
:1015D000FFF7CDF802214DF21E30FFF7C8F8672162
:1015E0004DF21F30FFF7C3F802214DF22030FFF714
:1015F000BEF884214DF22130FFF7B9F802214DF2F7
:101600002230FFF7B4F8A4214DF22330FFF7AFF8F2
:1016100002214DF22430FFF7AAF8B7214DF2253010
:10162000FFF7A5F802214DF22630FFF7A0F8CF21F1
:101630004DF22730FFF79BF802214DF22830FFF7DB
:1016400096F8DE214DF22930FFF791F802214DF294
:101650002A30FFF78CF8F2214DF22B30FFF787F894
:1016600002214DF22C30FFF782F8FE214DF22D3091
:10167000FFF77DF803214DF22E30FFF778F81021A7
:101680004DF22F30FFF773F803214DF23030FFF7A2
:101690006EF833214DF23130FFF769F803214DF236
:1016A0003230FFF764F86D214DF23330FFF75FF809
:1016B00000214FF45440FFF75AF833214DF2014016
:1016C000FFF755F800214DF20240FFF750F83421A2
:1016D0004DF20340FFF74BF800214DF20440FFF7B5
:1016E00046F83A214DF20540FFF741F800214DF24E
:1016F0000640FFF73CF84A214DF20740FFF737F864
:1017000000214DF20840FFF732F85C214DF209400C
:10171000FFF72DF800214DF20A40FFF728F881214C
:101720004DF20B40FFF723F800214DF20C40FFF77C
:101730001EF8A6214DF20D40FFF719F800214DF2D9
:101740000E40FFF714F8E5214DF20F40FFF70FF8B8
:1017500001214DF21040FFF70AF813214DF211401C
:10176000FFF705F801214DF21240FFF700F8542170
:101770004DF21340FEF7FBFF01214DF21440FEF73E
:10178000F6FF82214DF21540FEF7F1FF01214DF2E7
:101790001640FEF7ECFFCA214DF21740FEF7E7FFB7
:1017A00002214DF21840FEF7E2FF00214DF21940F0
:1017B000FEF7DDFF02214DF21A40FEF7D8FF0121AE
:1017C0004DF21B40FEF7D3FF02214DF21C40FEF705
:1017D000CEFF34214DF21D40FEF7C9FF02214DF22C
:1017E0001E40FEF7C4FF67214DF21F40FEF7BFFF0A
:1017F00002214DF22040FEF7BAFF84214DF2214034
:10180000FEF7B5FF02214DF22240FEF7B0FFA42102
:101810004DF22340FEF7ABFF02214DF22440FEF7CC
:10182000A6FFB7214DF22540FEF7A1FF02214DF2A0
:101830002640FEF79CFFCF214DF22740FEF797FF91
:1018400002214DF22840FEF792FFDE214DF22940A1
:10185000FEF78DFF02214DF22A40FEF788FFF221AC
:101860004DF22B40FEF783FF02214DF22C40FEF794
:101870007EFFFE214DF22D40FEF779FF03214DF250
:101880002E40FEF774FF10214DF22F40FEF76FFF40
:1018900003214DF23040FEF76AFF33214DF2314013
:1018A000FEF765FF03214DF23240FEF760FF6D2128
:1018B0004DF23340FEF75BFF00214FF45540FEF739
:1018C00056FF33214DF20150FEF751FF00214DF23A
:1018D0000250FEF74CFF34214DF20350FEF747FF54
:1018E00000214DF20450FEF742FF3A214DF205501F
:1018F000FEF73DFF00214DF20650FEF738FF4A216A
:101900004DF20750FEF733FF00214DF20850FEF76D
:101910002EFF5C214DF20950FEF729FF00214DF208
:101920000A50FEF724FF81214DF20B50FEF71FFFF6
:1019300000214DF20C50FEF71AFFA6214DF20D507A
:10194000FEF715FF00214DF20E50FEF710FFE521C6
:101950004DF20F50FEF70BFF01214DF21050FEF734
:1019600006FF13214DF21150FEF701FF01214DF248
:101970001250FEF7FCFE54214DF21350FEF7F7FE15
:1019800001214DF21450FEF7F2FE82214DF2155066
:10199000FEF7EDFE01214DF21650FEF7E8FECA21DA
:1019A0004DF21750FEF7E3FE02214DF21850FEF7FC
:1019B000DEFE00214DF21950FEF7D9FE02214DF254
:1019C0001A50FEF7D4FE01214DF21B50FEF7CFFE58
:1019D00002214DF21C50FEF7CAFE34214DF21D507B
:1019E000FEF7C5FE02214DF21E50FEF7C0FE672134
:1019F0004DF21F50FEF7BBFE02214DF22050FEF7C4
:101A0000B6FE84214DF22150FEF7B1FE02214DF2C7
:101A10002250FEF7ACFEA4214DF22350FEF7A7FEA4
:101A200002214DF22450FEF7A2FEB7214DF22550BF
:101A3000FEF79DFE02214DF22650FEF798FECF21C3
:101A40004DF22750FEF793FE02214DF22850FEF78B
:101A50008EFEDE214DF22950FEF789FE02214DF265
:101A60002A50FEF784FEF2214DF22B50FEF77FFE46
:101A700002214DF22C50FEF77AFEFE214DF22D5040
:101A8000FEF775FE03214DF22E50FEF770FE102179
:101A90004DF22F50FEF76BFE03214DF23050FEF752
:101AA00066FE33214DF23150FEF761FE03214DF207
:101AB0003250FEF75CFE6D214DF23350FEF757FEBB
:101AC00000214FF45640FEF752FE33214DF20160E3
:101AD000FEF74DFE00214DF20260FEF748FE342174
:101AE0004DF20360FEF743FE00214DF20460FEF765
:101AF0003EFE3A214DF20560FEF739FE00214DF21F
:101B00000660FEF734FE4A214DF20760FEF72FFE15
:101B100000214DF20860FEF72AFE5C214DF20960BB
:101B2000FEF725FE00214DF20A60FEF720FE81211E
:101B30004DF20B60FEF71BFE00214DF20C60FEF72C
:101B400016FEA6214DF20D60FEF711FE00214DF2AA
:101B50000E60FEF70CFEE5214DF20F60FEF707FE6A
:101B600001214DF21060FEF702FE13214DF21160CB
:101B7000FEF7FDFD01214DF21260FEF7F8FD542144
:101B80004DF21360FEF7F3FD01214DF21460FEF7F4
:101B9000EEFD82214DF21560FEF7E9FD01214DF2C7
:101BA0001660FEF7E4FDCA214DF21760FEF7DFFD77
:101BB00002214DF21860FEF7DAFD00214DF21960A6
:101BC000FEF7D5FD02214DF21A60FEF7D0FD01218E
:101BD0004DF21B60FEF7CBFD02214DF21C60FEF7BB
:101BE000C6FD34214DF21D60FEF7C1FD02214DF20C
:101BF0001E60FEF7BCFD67214DF21F60FEF7B7FDCA
:101C000002214DF22060FEF7B2FD84214DF22160E9
:101C1000FEF7ADFD02214DF22260FEF7A8FDA421E2
:101C20004DF22360FEF7A3FD02214DF22460FEF782
:101C30009EFDB7214DF22560FEF799FD02214DF280
:101C40002660FEF794FDCF214DF22760FEF78FFD51
:101C500002214DF22860FEF78AFDDE214DF2296057
:101C6000FEF785FD02214DF22A60FEF780FDF2218C
:101C70004DF22B60FEF77BFD02214DF22C60FEF74A
:101C800076FDFE214DF22D60FEF771FD03214DF230
:101C90002E60FEF76CFD10214DF22F60FEF767FD00
:101CA00003214DF23060FEF762FD33214DF23160C9
:101CB000FEF75DFD03214DF23260FEF758FD6D2108
:101CC0004DF23360FEF753FD55214FF47040FEF79F
:101CD0004EFDAA214FF20100FEF749FD52214FF2BD
:101CE0000200FEF744FD08214FF20300FEF73FFD1E
:101CF00000214FF20400FEF73AFDCC214FF43140B1
:101D0000FEF735FD00214BF20110FEF730FD0521F5
:101D10004FF43640FEF72BFD70214FF43740FEF7AD
:101D200026FD70214BF20170FEF721FD01214FF4D9
:101D30003840FEF71CFD03214BF60100FEF717FDAE
:101D400003214BF60200FEF712FD03214BF60300C0
:101D5000FEF70DFD02214FF43C40FEF708FD002187
:101D60004BF60140FEF703FD00214BF60240FEF763
:101D7000FEFCD0214FF44940FEF7F9FC02214CF65D
:101D80000110FEF7F4FC50214CF60210FEF7EFFCB8
:101D900050214CF60310FEF7EAFC50214CF60410DB
:101DA000FEF7E5FC00214FF45450FEF7E0FC55210E
:101DB0004FF46850FEF7DBFC4FF48850FEF7C2FC8E
:101DC000782007F0CAF84FF42450FEF7BBFC00203F
:101DD000FEF77DFE0120FE4908600020FEF702FFAD
:101DE00021B000BD2DE9F04F05460E461746984636
:101DF000DDF824A04FF0000B781B401C1FFA80FB7D
:101E0000344613E021462846FEF7DEFCFEF7BFFC11
:101E10004FF0000906E0EF48A0F800A009F101002A
:101E20001FFA80F9D945F6DB601C84B24445E9DD30
:101E3000BDE8F08F2DE9F84F07460D4690469946CC
:101E4000DDF828B0A8EB0700401C1FFA80FAA9EBC8
:101E50000500401C80B20090002414E0281981B2D3
:101E60003846FEF7B1FCFEF792FC002607E004FBC3
:101E70000A603BF81000D7490880701C86B25645AE
:101E8000F5DB601C84B200988442E7DBBDE8F88F84
:101E90002DE9FF4F84B081468A46002003900290CE
:101EA0000698A0EB09050798A0EB0A06CDF8049068
:101EB000CDF800A0002D01DD012705E00DB90027B8
:101EC00002E04FF0FF376D42002E02DD4FF00108B7
:101ED00006E016B94FF0000802E04FF0FF387642F6
:101EE000B54201DD2C4600E034464FF0000B21E006
:101EF000009A91B2019A90B2FEF784FD03982844AB
:101F000003900298304402900398A04205DD0398A4
:101F1000001B03900198384401900298A04205DD0F
:101F20000298001B02900098404400900BF10100C1
:101F30001FFA80FB601C8345DADD08B0BDE8F08F36
:101F4000F0B504460D4616461F462B463246294636
:101F50002046FFF79DFF3B46224629462046FFF7D5
:101F600097FF3B46324639462046FFF791FF3B46F6
:101F7000324629463046FFF78BFFF0BD2DE9F0438E
:101F800006460F469046002445460320A0EB48092C
:101F90003CE07A1B91B2321990B2FEF733FD3A1B46
:101FA00091B2721990B2FEF72DFD3A1991B27219E1
:101FB00090B2FEF727FD7A1991B2321990B2FEF76E
:101FC00021FD7A1991B2321B90B2FEF71BFD3A192E
:101FD00091B2721B90B2FEF715FD7A1B91B2321BC3
:101FE00090B2FEF70FFD3A1B91B2721B90B2FEF752
:101FF00009FD641CB9F1000F03DAA000801D8144C3
:1020000004E0601B80000A3081446D1EAC42C0DDDC
:10201000BDE8F0832DE9F84F80460E4617461C4672
:10202000B3462046E31704EB5373DB1021464FEA17
:10203000E47C04EB5C7C4FEAEC0CA4EBCC0CBCF134
:10204000000F02D04FF0010C01E04FF0000C634490
:10205000224604EBD27C4FEA6C0C03FB0CF3DBB2A0
:102060000093A7F12000C7B2002556E00C2C07D141
:1020700007EB4700584901EB800010F8059013E08A
:10208000102C05D1554800EB071010F805900BE017
:10209000182C07D107EBC700514901EB800010F85D
:1020A000059001E0BDE8F88F4FF0000A2FE009F03D
:1020B000800030B14B48028831464046FEF7B1FC03
:1020C00007E00A9828B94848028831464046FEF79A
:1020D000A8FC4FEA49604FEA1069701C86B2434879
:1020E0004088B04200DCDDE7A6EB0B00A0420AD13D
:1020F0005E4608F101001FFA80F83C480088404520
:1021000000DCCFE706E00AF1010000F0FF0ABAF1B7
:10211000080FCCDB00BF681CC5B200988542A5DB68
:1021200000BFBFE710B50246012000E050430B1E80
:10213000A1F10104E1B2F9D110BD2DE9FF4F81B049
:10214000074691461E460E9D4FF0000A002439E0D6
:10215000301B401EC1B20A20FFF7E4FFB9FBF0F0CC
:102160000A21B0FBF1F201FB1208BAF1000F16D1FF
:10217000701EA04213DDB8F1000F0ED10020AB4657
:1021800005EBDB71491001FB0471009088B22B460E
:1021900020220299FFF73EFF12E04FF0010A0020D3
:1021A000AB4605EBDB71491001FB0471009088B26E
:1021B00008F13001CAB22B460299FFF72BFF00BF8E
:1021C000601CC4B2B442C3DB05B0BDE8F08F0000B0
:1021D000A88242420020006CA64501081A4A010864
:1021E0000A500108180000201A000020A004002056
:1021F0002DE9FF4F82B0064692461F46DDE90F48A3
:102200000020019000254DE0781B401EC1B20A203D
:10221000FFF788FFBAFBF0F00A21B0FBF1F201FBF7
:102220001209019850BB781EA84227DDB9F1000FB2
:1022300022D108F0800078B108F00100A34604EB39
:10224000DB71491001FB0561009088B22346302202
:102250000399FFF7DFFE0EE008F00100A34604EB50
:10226000DB71491001FB0561009088B223462022F2
:102270000399FFF7CFFE13E00120019008F0010061
:10228000A34604EBDB71491001FB0561009088B2A5
:1022900009F13001CAB223460399FFF7BBFE00BF24
:1022A000681CC5B2BD42AFDB06B0BDE8F08F2DE9BA
:1022B000F84704460D4690469946DDE9096704F063
:1022C000FF0A08EB04001FFA80F809EB05001FFA6B
:1022D00080F916E0444502DB5446A81985B24D4505
:1022E00000DB14E0002000903A783346294620466F
:1022F000FFF790FE304606EBD07104EB61018CB223
:102300007F1C38787E2802DC38782028E2DA00BF8B
:10231000BDE8F88710B54FF4407003F0C5F810BD64
:1023200010B508F008FB012802D009F0A1F904E07B
:1023300034480068401C3349086010BD10B508F0EF
:10234000FAFA012802D008F0DBF810BD2D48006829
:10235000FBE708B5044625686668A768D4F80C80D2
:10236000D4F81090D4F814A0D4F818B0E069009014
:1023700025A010F059FD294629A010F055FD314641
:102380002AA010F051FD39462BA010F04DFD41461A
:102390002CA010F049FD49462DA010F045FD5146F6
:1023A0002EA010F041FD59462FA010F03DFD31A0A8
:1023B000009910F039FD3248016832A010F034FD68
:1023C0002F481038016832A010F02EFD2C480C3830
:1023D000016832A010F028FD29480838016832A0B1
:1023E00010F022FD2648001D016832A010F01CFDEF
:1023F00000BFFEE700BFFEE700BFFEE700BFFEE74D
:10240000704770471C0000205B4861726420666161
:10241000756C742068616E646C65725D0A00000002
:102420005230203D2025780A000000005231203D26
:102430002025780A000000005232203D2025780A2D
:10244000000000005233203D2025780A00000000E3
:10245000523132203D2025780A0000004C52203DA8
:102460002025780A000000005043203D2025780AEE
:1024700000000000505352203D2025780A00000043
:1024800038ED00E042464152203D2025780A000008
:1024900043465352203D2025780A000048465352B7
:1024A000203D2025780A000044465352203D202537
:1024B000780A000041465352203D2025780A00004A
:1024C00010B50121880303F078FE0020744988705C
:1024D0000120C8700520487006200870084602F0E8
:1024E000E8FF0C206E49487007200870084602F08B
:1024F000E0FF0C206A49487008200870084602F086
:10250000D8FF0C206649487009200870084602F080
:10251000D0FF0C20624948700A200870084602F07B
:10252000C8FF0C205E49487017200870084602F06A
:10253000C0FF0A205A49487028200870084602F057
:10254000B8FF10BD704710B5012005F074F8FFF713
:10255000F9FF10BD704710B5022005F06CF8FFF7C9
:10256000F9FF10BD704710B5042005F064F8FFF7BF
:10257000F9FF10BD704710B5082005F05CF8FFF7B3
:10258000F9FF10BD704710B5102005F054F8FFF7A3
:10259000F9FF10BD7047704770477047704710B51E
:1025A000202005F03DF8012804D1202005F043F853
:1025B000FFF7F4FF402005F033F8012804D1402054
:1025C00005F039F8FFF7E9FF802005F029F8012828
:1025D00004D1802005F02FF8FFF7DEFF4FF4807064
:1025E00005F01EF8012804D1000205F024F8FFF7D9
:1025F000D2FF4FF4007005F013F8012804D1400217
:1026000005F019F8FFF7C6FF10BD70477047704717
:1026100070477047704710B54FF4806005F000F8C0
:10262000012804D1800205F006F8FFF7F3FF4FF40C
:10263000006004F0F5FF012804D1C00204F0FBFFA4
:10264000FFF7E7FF4FF4805004F0EAFF012804D1C0
:10265000000304F0F0FFFFF7DBFF4FF4005004F03D
:10266000DFFF012804D1400304F0E5FFFFF7CFFFAF
:102670004FF4804004F0D4FF012804D1800304F01B
:10268000DAFFFFF7C3FF4FF4004004F0C9FF012851
:1026900004D1C00304F0CFFFFFF7B7FF10BD000067
:1026A0002000002010B5044600BF0221414806F07A
:1026B00007FC0028F9D021463E4806F0B8FB00BFD1
:1026C00001213C4806F0FCFB0028F9D0394806F00F
:1026D000ABFBC0B210BD00B587B00121022003F0F2
:1026E0005BFD0121080303F0B1FD382005900220B5
:1026F0008DF8180000208DF81A0003208DF81900BD
:1027000001208DF81B0005A92B4803F0A7FA05222C
:102710000321294803F02DFB05220421264803F05C
:1027200028FB05221146244803F023FB012108035E
:1027300003F0E1FD00214FF4805003F0DCFD0020A8
:10274000ADF800004FF48270ADF802000020ADF843
:1027500004000220ADF806000120ADF80800400298
:10276000ADF80A003820ADF80C000020ADF80E00DE
:102770000720ADF8100069460E4806F0DDF901218A
:102780000C4806F0D3FAFF20FFF78CFF07B000BD1E
:1027900010B50446074800884FF6C7710840054940
:1027A000088008460088204308800121014806F07F
:1027B000BDFA10BD003001400004024010B50024F5
:1027C0000020CF4908609020FFF76CFF0020FFF742
:1027D00069FF0020FFF766FF0020FFF763FFFF207F
:1027E000FFF760FF44EA0024FF20FFF75BFF04438C
:1027F0000120C449C1F8A002204610BD1CB501212A
:10280000402003F0C9FC4FF48070009001208DF847
:10281000040000208DF8060003208DF8050001203B
:102820008DF807006946B84803F018FA0120B4494A
:102830000860FFF750FF0020FFF7AAFFFFF7BEFF79
:10284000B24908801CBD10B500240020AC490860C6
:102850000520FFF727FFFF20FFF724FF0446012094
:10286000A849C1F8A002204610BD10B504460020BA
:10287000A34908600120FFF715FF2046FFF712FF6C
:102880000120A049C1F8A00210BD10B500209C494C
:1028900008600620FFF706FF01209A49C1F8A00250
:1028A00010BD10B50020964908600420FFF7FAFE1D
:1028B00001209449C1F8A00210BD2DE9F04106465F
:1028C0000C46174600208E4908600320FFF7EAFEF9
:1028D000C4F30740FFF7E6FEC4F30720FFF7E2FE6C
:1028E000E0B2FFF7DFFE002505E0FF20FFF7DAFE8C
:1028F0007055681C85B2BD42F7DB01208049086035
:10290000BDE8F08110B500BFFFF79DFF00F00100AA
:102910000028F9D110BD2DE9F04106460C461746B6
:10292000FFF7B3FF0020764908600220FFF7BAFEE8
:10293000C4F30740FFF7B6FEC4F30720FFF7B2FE6B
:10294000E0B2FFF7AFFE002504E0705DFFF7AAFEDE
:10295000681C85B2BD42F8DB012069490860FFF7B9
:10296000D1FFBDE8F0812DE9F04107460E4614463F
:10297000F0B2C0F58075AC4200DC254612E02A4674
:1029800031463846FFF7C7FFAC4200D10BE02F4479
:102990002E44601B84B2B4F5807F02DD4FF4807555
:1029A00000E02546EBE700BFBDE8F08110B5044626
:1029B0002403FFF76AFFFFF7A5FF002050490860D6
:1029C0002020FFF76FFEC4F30740FFF76BFEC4F350
:1029D0000720FFF767FEE0B2FFF764FE01204949D8
:1029E000C1F8A002FFF78EFF10BD2DE9F05F814610
:1029F0000F461646DFF818B14FEA1738C7F30B0A2F
:102A0000CAF58054A64200DC344644E04FEA08315F
:102A10004FF480525846FFF750FF002508E00AEBBC
:102A200005001BF80000FF2800D003E0681C85B2F9
:102A3000A542F4DB00BFA54216DA4046FFF7B6FF19
:102A4000002507E019F8050005EB0A010BF8010065
:102A5000681C85B2A542F5DB4FEA08314FF480527D
:102A60005846FFF780FF04E0224639464846FFF704
:102A70007AFFA64200D10FE008F101084FF0000AEA
:102A8000A1442744301B86B2B6F5805F02DD4FF4C7
:102A9000805400E03446B9E700BFBDE8F09F10B5B0
:102AA000FFF7F3FEFFF72EFF002015490860C7204F
:102AB000FFF7F8FD01201349C1F8A002FFF722FF3C
:102AC00010BD10B500200E490860B920FFF7EAFDDF
:102AD00001200C49C1F8A002032006F03EFA10BD07
:102AE00010B5002006490860AB20FFF7DBFD012090
:102AF0000449C1F8A002032006F02FFA10BD00001F
:102B0000A00243420000434200180240240000207B
:102B1000AE0400200020FE490860091D0860091D60
:102B20000860091D0860FA4924310860091D086021
:102B3000091D0860F748F649383108600020091D72
:102B40000860704701460020012900D011B9F24BFE
:102B5000197000E0262070470146ED4A121D1068EA
:102B600020F0FF0008431060704770B5044606E08F
:102B7000E7483430056805F0450000B100E0F7E7AC
:102B800000BF042004F0FCFF20B1042005F003F88E
:102B9000032070BD012004F0F3FF20B1012004F0F8
:102BA000FAFF0120F5E7DA4810300068A04201D0B2
:102BB0001020EEE740F2FF5004F0EDFFD44814304F
:102BC000006808210840C0B2E3E72DE9FC41074650
:102BD0000D46002600240020009001900820CF49D7
:102BE000086010204860402088600020C8604FF4D2
:102BF00080600861084604F030FF1020FFF7B5FF41
:102C0000044614B12046BDE8FC81C5480088000494
:102C1000C249086037204860402088600020C860B2
:102C20004FF480600861084604F017FF3720FFF773
:102C30009CFF04460CB12046E5E74FF0FF30B94950
:102C4000086008204860302088600220C8600020AA
:102C5000086101204861084604F02BFF0020AF49BD
:102C6000086033204860402088600020C8604FF42E
:102C700080600861084604F0F0FE3320FFF775FF1E
:102C800004460CB12046BEE70DE04FF4001004F0FE
:102C900077FF40B19E48803000684DF82600761CD2
:102CA000022E00D307E09A483430006840F22A61CF
:102CB00008400028E9D000BF082004F061FF20B1DF
:102CC000082004F068FF04209DE7022004F058FF6C
:102CD00020B1022004F05FFF022094E7202004F0DE
:102CE0004FFF20B1202004F056FF06208BE74FF461
:102CF000007004F045FF28B14FF4007004F04BFF62
:102D0000072080E740F2FF5004F045FF00980006DE
:102D1000009901F47F4140EA0120009901F47F010C
:102D200040EA1120009940EA1160686001980006AD
:102D3000019901F47F4140EA0120019901F47F01EA
:102D400040EA1120019940EA1160286020465AE7C4
:102D50007CB50546002400200090019000260DB1AE
:102D6000022600E000266A481430006800F0007077
:102D700008B10E207CBD6A49098888B26946FFF710
:102D800024FF04460CB12046F4E7019800F48020AB
:102D900060B36348008800046049086037204860D9
:102DA000402088600020C8604FF4806008610846B9
:102DB00004F053FE3720FFF7D8FE04460CB120463E
:102DC000D8E756480660062054494860402088608D
:102DD0000020C8604FF480600861084604F03DFEA2
:102DE0000620FFF7C2FE04462046C3E72520C1E7C0
:102DF00070B5044600254C480078032802D12725E9
:102E0000284670BD4848007838B147480078012806
:102E100003D045480078022819D1B4F5805F02D16B
:102E200027252846EDE7E0B2FFF792FF054675B982
:102E30003748001D006820F4C0503549091D08605E
:102E40000846006820430860084600680860284675
:102E5000D7E710B504463148046007202F49486081
:102E6000402088600020C8604FF4806008610846F8
:102E700004F0F3FD0720FFF778FE10BDF0B5014622
:102E800000200022284B1B7881F85630244B1B88E9
:102E9000A1F85430254B1B681A0E93090B70C2F32E
:102EA00083034B7002F003038B70204B1B68C3F34A
:102EB0000742CA701D4B1B88C3F307220A711B4BC4
:102EC0001A784A715B681A0E1301CB80174B5B6846
:102ED000C3F30742CB8843EA1213CB8002F00F03FF
:102EE0000B72124B9B88C3F30722D3094B72C2F3B8
:102EF00080138B72C2F34013CB72C2F300130B73B7
:102F000000234B73084B1B78C3B1074B1B780FE0B2
:102F1000002C0140FF07C00034000020C81400202E
:102F200030000020DC1400202C000020F4140020CD
:102F3000012B03D0FE4B1B78032B4FD193071B0DA6
:102F40000B61FC4B1A790B6943EA82030B61F94B65
:102F50009B681A0E0B6943EA92130B61C2F3C2031A
:102F60000B7502F007034B75F24B9B68C3F30742E6
:102F700053098B75C2F38203CB7593075B0F0B76F6
:102F8000EC4B1B89C3F307220B7E43EAD2130B766B
:102F90000B695B1C0024C1E912340B7E9B1C0124CD
:102FA00004FA03F3DC17D1E91256A5FB037C06FBF8
:102FB00003C305FB0433C1E912730C7A0123A34058
:102FC0000B650024D1E912650B6DA6FB037C05FBA4
:102FD00003C306FB0433C1E912732EE0D44B1B7804
:102FE000022B2AD1D34B1A7993069B0A0B61D14B42
:102FF0009B681A0E0B6943EA02230B61CD4B9B6859
:10300000C3F307420B6913430B61CA4B1B89C3F31C
:1030100007220B695B1C4FF40074A3FB04464FF4BA
:1030200080630025A4FB037C06FB03C304FB05337C
:10303000C1E912734FF400730B65C2F3801301F8FA
:10304000193F93065B0E4B70BA4B1A7A4B7843EAE2
:10305000D2134B7002F07F038B70B64BDB681A0EF5
:10306000D309CB70C2F341130B71C2F382034B71CE
:1030700093071B0F8B71AF4BDB68C3F307428B7950
:1030800043EA92138B71C2F34013CB7100230B728E
:1030900002F001034B72A74B9B89C3F30722D309AC
:1030A0008B72C2F38013CB72C2F340130B73C2F363
:1030B00000134B73C2F381038B7302F00303CB73D2
:1030C0009C4B1A7B53080B7401234B749A4B1B685F
:1030D0001A0ECA741939984B1B68C3F307421402BD
:1030E000CC85954B1B88C3F30722CB8D1343CB852F
:1030F000914B1A7814060C635B681A0E0B6B43EA4B
:1031000002440C638C4B5B68C3F307420B6B43EACE
:1031100002240C63884B9B88C3F307220B6B134379
:103120000B63854B1A7934235A54834B9B681A0ED0
:1031300035235A54804B9B68C3F3074214068C63B3
:103140007D4B1B89C3F307228B6B43EA02448C63DC
:10315000794B1A7A8B6B43EA02248C63764BDB68DB
:103160001A0E8B6B13438B63734BDB68C3F30742FD
:103170003C235B5C43EA12143C235C5413071C0D94
:10318000CC876D4B9B89C3F30722CB8F1343CB872F
:10319000694B1A7B540840235C54012441235C543E
:1031A000F0BD70B500264FF4803505E06348046833
:1031B00004F0450000B103E0281EA5F10105F5D19A
:1031C00000BF15B104F0040028B10326042004F068
:1031D000E2FC304670BD012004F0D2FC18B101269B
:1031E000012004F0D8FC40F2FF5004F0D4FC30463B
:1031F000F0E72DE9F04105460E464FF0000805E0E6
:103200004E48076807F0450000B100E0F8E700BF4E
:10321000042004F0B5FC28B1042004F0BCFC032019
:10322000BDE8F081012004F0ABFC20B1012004F0E6
:10323000B2FC0120F4E7414824380068A84201D0DC
:103240001020EDE740F2FF5004F0A5FC3B48203889
:10325000046804F4604018B9200C30804046DFE771
:1032600004F4005008B11320DAE704F4804008B1F8
:103270001020D5E704F4004008B10F20D0E7404605
:10328000CEE738B500240120009004F0E0FB10B92F
:103290002524204638BD26480078042825D0002063
:1032A0002749086002204860C02088600020C8606C
:1032B0004FF480600861084604F0CFFBFFF771FF10
:1032C00004460CB12046E5E71C48203800681A493E
:1032D00008601A481C3800684860184818380068A8
:1032E0008860164814380068C8601148007858B1E2
:1032F0000F480078012807D00D480078062803D031
:103300000B480078022821D100200D4908600320D5
:103310004860402088600020C8604FF480600861E9
:10332000084604F09AFB69460320FFF762FF09E0B4
:103330002C000020F414002004150020342C01403F
:10334000C814002004460CB12046A3E7FE480078CC
:10335000032816D1BDF800000004FC4908600320D2
:103360004860402088600020C8604FF48060086199
:10337000084604F072FBFFF714FF04460CB1204628
:1033800088E7F148007804282AD0BDF80000F04909
:103390000860BDF800000004EC490860092048609E
:1033A000C02088600020C8604FF480600861084633
:1033B00004F053FBFFF7F5FE04460CB1204669E725
:1033C000E4480068E4490860E248001D006848607D
:1033D000E048083000688860DE480C300068C8604B
:1033E000002057E710B506E0DA482030046804F002
:1033F000450000B100E0F7E700BF042004F0C0FB87
:1034000020B1042004F0C7FB032010BD40F2FF50A0
:1034100004F0C1FB0020F8E770B500264FF48035BA
:1034200006E0CC482030046804F0450000B103E019
:10343000281EA5F10105F4D100BF15B104F0040068
:1034400028B10326042004F0A6FB304670BD04F02A
:10345000400018B10026402004F09DFB3046F5E7FF
:1034600070B500254FF4803404E0802004F088FB20
:1034700000B103E0201EA4F10104F6D100BF0CB995
:10348000032070BD40F2FF5004F085FB2846F8E7AA
:103490002DE9F0470027002400260025A046A1467C
:1034A0007620AE4908750020086048608860C860D2
:1034B0000861084604F0A7FA032004F0C4FAA548FE
:1034C0001038006840F48070A2491039086000BFCD
:1034D00012E000209D49086048608860C8604FF491
:1034E00080600861084604F0B8FAFFF7B9FF0446A7
:1034F00004B903E0781CC7B24A2FEADB00BF14B15D
:103500002046BDE8F0874FF4D57090490860082048
:103510004860402088600020C8604FF480600861E7
:10352000084604F09AFAFFF777FF044624B9012011
:10353000854908704FF08049002084490860372091
:103540004860402088600020C8604FF480600861B7
:10355000084604F082FA3720FFF707FB0446002CE8
:103560004BD134E000207949086037204860402082
:1035700088600020C8604FF480600861084604F04D
:103580006CFA3720FFF7F1FA04460CB12046B8E791
:10359000734849EA00006D490860292048604020CE
:1035A00088600020C8604FF480600861084604F01D
:1035B00054FAFFF717FF04460CB12046A1E765480F
:1035C0000668012080EAD67080F001086D1CB8F111
:1035D000000F03D14FF6FF708542C3D34FF6FF7043
:1035E000854202D31B2420468BE706F08040061E4E
:1035F00032D00220544908702EE01CE0594853494B
:10360000086001204860402088600020C8604FF4B6
:1036100080600861084604F020FAFFF7E3FE0446E4
:103620000CB120466DE74B480668012080EAD67051
:1036300080F001086D1CB8F1000F03D14FF6FF7048
:103640008542DBD34FF6FF70854202D31B24204610
:1036500057E703203C490870204652E73EB5002456
:1036600000250121404802F097FD0121C80202F027
:10367000EDFD0121C80202F03EFE4FF4F85001902A
:1036800002208DF808008DF8090000208DF80A004E
:1036900001208DF80B0001A9344802F0DFFA042064
:1036A000019001A9324802F0D9FA0C2208212F48D2
:1036B00002F05FFB0C2209212C4802F05AFB0C227D
:1036C0000A212A4802F055FB0C220B21274802F060
:1036D00050FB0C221146254802F04BFB0C22022124
:1036E000234802F046FB00214FF4006002F003FE85
:1036F000FFF710FA31208DF8000000208DF801004E
:103700008DF8020001208DF80300684601F0D1FE1B
:10371000FFF7BEFE044614B9FFF7B3FD04461CB91B
:103720001448FFF7ABFB044634B91249B1F8541002
:103730000804FFF78EFB044624B94FF40060FFF73E
:1037400057FB0446E4B117E02C000020C814002009
:1037500030000020142C0140F4140020B01400208C
:10376000000010800080FF800C0040000008024034
:10377000000C024018150020FE480078032812D1E2
:10378000FD4890F8560020B1FB4890F856000128FB
:1037900001D1022500E000252846FFF7DDF90020D1
:1037A000FFF7D0F9044620463EBD10B5002004F0D6
:1037B0004AF9002010BD0146002002E04910421CD9
:1037C000D0B20129FAD1704770B590B004460E46C8
:1037D000154600BFE94804F060F80028FAD1E74830
:1037E00003F032FF4FF000600190E548029003942F
:1037F00004950020059006904FF4806007908000AB
:1038000008908000099000200A904FF440300B90FF
:1038100004200C9003200D904FF400000E908010B7
:103820000F9001A9D54803F0B1FF2021D34803F040
:10383000FDFF0121D14803F0E3FF10B070BD2DE979
:10384000F84F8146174698460A9C4FF0000AD34627
:103850004D464FF0FF36B9F1000F02D12620BDE8EA
:10386000F88F0020C64954390860C2480078022801
:1038700005D10402780A40EAC8574FEA68280020B8
:10388000C04988604860401E0860012048610020EF
:10389000C8600861084604F00CF9B9486C38006843
:1038A00000F0007008B10E20D9E7002C21DDB4F53E
:1038B000006F1EDC601E2040D8B92046FFF77BFF5A
:1038C0000090B14804601020AF49486040208860F3
:1038D0000020C8604FF480600861084604F0BDF81D
:1038E0001020FFF742F98246BAF1000F03D050468C
:1038F000B5E72620B3E700980001A2498860084692
:1039000044604FF0FF300860012048610220C86029
:1039100000200861084604F0CCF89B48076011209D
:1039200099494860402088600020C8604FF480605A
:103930000861084604F091F81120FFF716F9824655
:10394000BAF1000F01D0504689E79048007800286E
:103950005AD1FCF72EFC17E04FF4004004F010F9A8
:1039600070B14FF0000B05E08548006845F82B006A
:103970000BF1010BBBF1080FF6D32035844E03E0A9
:103980000EB904206BE7761E7D484C38006840F283
:103990002A6108400028DFD0082004F0F1F820B1A7
:1039A000082004F0F8F8042059E7022004F0E8F8B1
:1039B00020B1022004F0EFF8022050E7202004F0AC
:1039C000DFF820B1202004F0E6F8062047E74FF4A6
:1039D000007004F0D5F828B14FF4007004F0DBF863
:1039E00007203CE703E06648006828602D1D4FF47F
:1039F000001004F0C5F80028F5D1FCF7DCFB40F21C
:103A0000FF5004F0C8F839E060480078012835D14B
:103A10000020604908706049087060490870584883
:103A20004438006840F22A31084355494439086057
:103A300053485438006840F0080051495439086030
:103A4000002221464846FFF7BFFE00E0761E4B48A5
:103A50005838006800F0006038B95048007820B944
:103A60004C48007808B9002EF0D10EB90420F6E6D3
:103A70004848007810B1474890F800A05046EEE65C
:103A80002DE9FF5F17469846DDE90E464FF0000925
:103A9000CA464FF0FF354249009808600020384977
:103AA0005439086033480078022805D10402780AA6
:103AB00040EAC8574FEA68280020324988604860C9
:103AC000401E0860012048610020C8600861084667
:103AD00003F0EFFF2A486C38006800F0007018B15E
:103AE0000E2004B0BDE8F09F002C21DDB4F5006F7E
:103AF0001EDC601E2040D8B92046FFF75CFE8346DE
:103B0000214804601020204948604020886000203F
:103B1000C8604FF480600861084603F09EFF1020E3
:103B2000FFF723F88146B9F1000F03D04846D8E7E4
:103B30002620D6E7012E6ED906FB04F0B0F1007FF7
:103B400001D32620CDE74FEA0B100E49886006FB13
:103B500004F048604FF0FF30086001204861022007
:103B6000C86000200861084603F0A3FF064807600C
:103B7000122017E02C000020181500205864024085
:103B8000802C0140DC140020C814002034000020E8
:103B9000FFFF7F00360000203500002037000020A6
:103BA00038000020F9494860402088600020C86043
:103BB0004FF480600861084603F04FFF1220FEF7C3
:103BC000D4FF8146B9F1000F01D0484689E7F0489B
:103BD000007800287ED1FCF7ECFA1EE04FF400409C
:103BE00003F0CEFFA0B14FF0000A07E0E9480068FB
:103BF000E949096841F82A000AF1010ABAF1080FF7
:103C0000F4D3E54800682030E3490860E34D04E060
:103C100015B9042065E7AEE06D1EDE484C3800683B
:103C200040F22A3108400028D8D0082003F0A8FF2D
:103C300020B1082003F0AFFF042052E7022003F078
:103C40009FFF20B1022003F0A6FF022049E72020B9
:103C500003F096FF20B1202003F09DFF062040E7EF
:103C60004FF4007003F08CFF28B14FF4007003F0A4
:103C700092FF072035E709E0C6480068C649096891
:103C80000860C5480068001DC34908604FF4001073
:103C900003F076FF0028EFD14FF4807003F070FF3F
:103CA00020B3BF48007838B1BD480078012803D060
:103CB000BB480078022819D10020B44908600C20C4
:103CC0004860402088600020C8604FF48060086130
:103CD000084600E011E003F0C0FE0C20FEF745FFAF
:103CE0008146B9F1000F01D04846FAE6FCF763FAC5
:103CF00040F2FF5003F04FFF3DE0A5480078012857
:103D000039D10020A74908700120A7490870002078
:103D1000A64908709F484438006840F22A31084399
:103D20009C49443908609B485438006840F00800BA
:103D300098495439086006FB04F100220098FFF707
:103D400043FD00E06D1E9A48006800F0006008B96D
:103D5000002DF7D10DB90420C3E600BF93480078C9
:103D600018B9904800780028F8D08E48007810B133
:103D70008C4890F800904846B3E61CB504460020F5
:103D8000019000908B4800880004804908600D2055
:103D90004860402088600020C8604FF4806008615F
:103DA000084603F05AFE7B484C380068009003E058
:103DB00078484C3800680090009800F045000028D2
:103DC000F6D0012003F0DCFE20B1012003F0E3FE79
:103DD00001201CBD042003F0D3FE20B1042003F019
:103DE000DAFE0320F5E76B48703800680D2801D033
:103DF0001020EEE740F2FF5003F0CDFE65486C382E
:103E0000006801900198C0F3432020700020E0E793
:103E10002DE9FF5F86B017469846149D00260020C6
:103E200005900490002481460390824602900195FB
:103E3000DDF818B0DDF818B0BBF1000F03D1262073
:103E40000AB0BDE8F09F00205249543908605A4931
:103E500088604860401E0860012048610020C860FA
:103E60000861084603F025FE4A486C38006800F0F7
:103E7000007008B10E20E3E749480078022805D118
:103E80000502780A40EAC8574FEA6828002D1FDD6E
:103E9000B5F5006F1CDC681E2840C8B92846FFF73E
:103EA0008AFC059039480560102038494860402058
:103EB00088600020C8604FF480600861084603F005
:103EC000CCFD1020FEF751FE06461EB13046B7E786
:103ED0002620B5E73748008800042C4908600D20EB
:103EE0004860402088600020C8604FF4806008610E
:103EF000084603F0B2FD0D20FEF737FE06460EB170
:103F000030469DE723486C38006803904FF0FF343B
:103F10001CE0641E2748008800041C4908600D202E
:103F20004860402088600020C8604FF480600861CD
:103F3000084603F092FD0D20FEF717FE06460EB16F
:103F400030467DE713486C3800680390039800F40E
:103F5000807008B9002CDCD10CB9292070E70B481F
:103F60000760182009494860402088600020C86028
:103F70004FF480600861084603F06FFD1820FEF7DB
:103F8000F4FD0646D6B130465AE70000C8140020BA
:103F900034000020802C014038000020FFFF7F000B
:103FA0002C000020360000203500002037000020C3
:103FB0000064024030000020DC1400200020F8499A
:103FC000087005980001F7498860084645604FF081
:103FD000FF300860012048610020C8600861084681
:103FE00003F067FD4FF0FF34EF48007800287CD1E4
:103FF000FCF7DFF843E04FF4804003F0C1FDC8B3A5
:104000000198A0EB0900202821D20198A0EB09001B
:1040100000F0030020B90198A0EB0900800804E03B
:104020000198A0EB09008008401C02904FF0000AA4
:1040300009E0DE49DBF8000008600AF1010A0BF133
:10404000040B09F1040902988245F2D30FE04FF006
:10405000000A05E05BF82A00D44908600AF1010A69
:10406000BAF1080FF6D30BF1200B09F120096FF01C
:10407000404404E0FFE70CB90420E1E6641ECB48AD
:104080004C38006840F21A6108400028B3D008207C
:1040900003F076FD20B1082003F07DFD0420CFE67B
:1040A000022003F06DFD20B1022003F074FD022018
:1040B000C6E6102003F064FD20B1102003F06BFD74
:1040C0000520BDE64FF4007003F05AFD30B14FF407
:1040D000007003F060FD0720B2E606E0FCF76BF825
:1040E00040F2FF5003F057FD43E0AF48007801284D
:1040F0003FD10020AE490870A9490870AD49087049
:10410000AA484438006840F21A310843A7494439A4
:104110000860402229460698FFF756FBA34854380A
:10412000006840F00800A1495439086000E0641EAE
:10413000A148006800F0006008B9002CF7D11CB954
:10414000FFF78CFA04207BE64FF0FF3400E0641E9A
:104150009848007820B99648007808B9002CF6D124
:104160000CB904206CE69248007810B190480078B1
:1041700066E640F2FF5003F00EFD04A8FFF7FDFDD8
:10418000064603E004A8FFF7F8FD06463EB99DF891
:1041900010000728F6D09DF810000628F2D030460F
:1041A0004EE62DE9FF5F84B0DDE9124700260020CE
:1041B00003900290002580468146019007FB04FB96
:1041C000DDF810A0DDF810A0BAF1000F03D1262011
:1041D00008B0BDE8F09F0020744954390860714967
:1041E00088604860401E0860012048610020C86067
:1041F0000861084603F05DFC6C486C38006800F00C
:10420000007008B10E20E3E76C480078022808D15E
:104210000402DDE90601400A40EAC1504912CDE935
:104220000601002C1FDDB4F5006F1CDC601E204071
:10423000C8B92046FFF7BFFA039061480460102018
:104240005F494860402088600020C8604FF480606B
:104250000861084603F001FC1020FEF786FC0646C4
:104260001EB13046B4E72620B2E7012F6FD907FB15
:1042700004F0B0F1007F01D32620A9E74F48007871
:1042800038B14E480078012803D04C480078022805
:104290002DD14C4800880004494908603720486007
:1042A000402088600020C8604FF4806008610846A4
:1042B00003F0D3FB3720FEF758FC06460EB130461C
:1042C00086E73F48076017203D49486040208860E6
:1042D0000020C8604FF480600861084603F0BDFB11
:1042E0001720FEF742FC06460EB1304670E734490F
:1042F0000698086019204860402088600020C86047
:104300004FF480600861084603F0A7FB1920FEF710
:104310002CFC06460EB130465AE7039800012149AD
:10432000886007FB04F048604FF0FF300860012010
:1043300048610020C8600861084603F0BAFB1A48CB
:104340000078002872D1451EFBF733FF54E0F8E0F7
:104350004FF4804003F014FCB0B3ABEB080020280E
:1043600033D2ABEB080000F0030018B9ABEB080048
:10437000800803E0ABEB08008008401C01904FF080
:10438000000909E00949DAF80000086009F10109AB
:104390000AF1040A08F1040801988145F2D324E0E7
:1043A00035000020DC14002034000020802C014067
:1043B0003600002037000020006402402C0000205E
:1043C000C81400203000002012E04FF0000905E082
:1043D0005AF82900F749086009F10109B9F1080FF5
:1043E000F6D30AF1200A08F120086FF0404503E0F7
:1043F0000DB90420ECE66D1EEE484C38006840F222
:104400001A3108400028A3D0082003F0B9FB20B1DE
:10441000082003F0C0FB0420DAE6022003F0B0FB22
:1044200028B1022003F0B7FB0220D1E640E01020C3
:1044300003F0A6FB20B1102003F0ADFB0520C7E67A
:104440004FF4007003F09CFB28B14FF4007003F0B0
:10445000A2FB0720BCE64FF4807003F091FB00B391
:10446000D548007838B1D4480078012803D0D24824
:104470000078022815D10020D04908600C2048603F
:10448000402088600020C8604FF4806008610846C2
:1044900003F0E3FA0C20FEF768FB06460EB1304647
:1044A00096E6FBF788FE40F2FF5003F074FB48E00D
:1044B000C3480078012844D10020C2490870012077
:1044C000C14908700020C1490870BA4844380068E2
:1044D00040F21A310843B7494439086007FB04F138
:1044E00040220498FFF770F9B2485438006840F051
:1044F0000800B049543908604FF0FF3500E06D1EE8
:10450000B348006800F0006008B9002DF7D11DB96C
:10451000FFF7A4F804205BE64FF0FF3500E06D1EC6
:10452000AA48007820B9A748007808B9002DF6D12C
:104530000DB904204CE6A348007810B1A1480078DA
:1045400046E640F2FF5003F026FB02A8FFF715FCF9
:10455000064603E002A8FFF710FC06463EB99DF8A8
:1045600008000728F6D09DF808000628F2D030464B
:104570002EE610B54FF4807003F002FB88B392482A
:104580000078012814D100208C4908600C20486074
:10459000402088600020C8604FF4806008610846B1
:1045A00003F05BFA0C20FEF7E0FA8649087002E09F
:1045B0000020844908707F484838006840F48070C3
:1045C0007C4948390860081D00684CF23A3188433C
:1045D00078494439086001207C490870794800789E
:1045E00010BDFFE7022003F0CBFA78B1022003F000
:1045F000D2FA7048443800684CF23A3188436D4929
:104600004439086002206F490870E9E7082003F088
:10461000B7FA78B1082003F0BEFA6648443800685B
:104620004CF23A31884363494439086004206549B3
:104630000870D5E7202003F0A3FA78B1202003F01A
:10464000AAFA5C48443800684CF23A318843594928
:104650004439086006205B490870C1E7102003F068
:104660008FFA78B1102003F096FA52484438006867
:104670004CF23A3188434F4944390860052051498A
:104680000870ADE74FF4007003F07AFA80B14FF490
:10469000007003F080FA4748443800684CF23A3121
:1046A000884344494439086007204649087097E721
:1046B000002095E710B5FFF75CFF10BD70B504460C
:1046C000002514B92625284670BD424800880004FC
:1046D0003A4908600D204860402088600020C8608A
:1046E0004FF480600861084603F0B7F90D20FEF72B
:1046F0003CFA05460DB12846E6E72E486C380068BE
:1047000020602846E0E708B5002000906846FFF7E3
:10471000D5FF08B1FF2008BD0098C0F34320FAE799
:104720002DE9FE4F83460C4691460020029000265C
:1047300025462C46700240EAD5566D020BF0030068
:10474000F0B14FF0000A18E04FF4007000904FEA0B
:104750004A20471946EBE0733A461F48FFF76FF8C7
:1047600002904FF400721C4958460DF0F5FE0BF50F
:10477000007B0AF1010000F0FF0ACA45E4DB16E005
:10478000B9F1010F09D14FF400702A463346009069
:104790005846FFF754F8029009E04FF400702A469B
:1047A0003346CDE900095846FFF76AF902900298AE
:1047B000BDE8FE8F802C01402C000020C814002092
:1047C0003400002036000020350000203700002093
:1047D0000064024030000020701500202DE9FE4FDB
:1047E00081460C46924600200290002625462C4623
:1047F000700240EAD5566D0209F00300F0B14FF0A7
:10480000000B18E04FF40072494619480DF0A4FE61
:104810004FF4007000904FEA4B20471946EBE073CD
:104820003A461348FFF7F4FA029009F500790BF1C4
:10483000010000F0FF0BD345E4DB16E0BAF1010FF5
:1048400009D14FF400702A46334600904846FFF7DE
:10485000DFFA029009E04FF400702A463346CDE9B2
:10486000000A4846FFF79DFC02900298BDE8FE8FC3
:104870007015002000B587B0002201210A2004F045
:104880006BFC554908600846006820B9222253A1F4
:1048900059A00CF0D4FE0121084601F07DFC012155
:1048A000C80401F0C2FC594802F01CFC0822002197
:1048B000574801F05EFA08220121554801F059FAE3
:1048C0000320059002208DF8180003208DF81900B0
:1048D00000208DF81A0001208DF81B0005A94C4816
:1048E00001F0BCF94FF4E13001900020ADF8080070
:1048F000ADF80A00ADF80C00ADF810000C20ADF8D2
:104900000E0001A9414802F054FC40213F4802F04A
:10491000C0FD012240F225513C4802F088FD3420C0
:104920008DF8000005208DF8010000208DF80200B0
:1049300001208DF80300684600F0BBFD01213348DB
:1049400002F0BFFC07B000BD10B5044600234FF4D1
:104950007A7221462048006804F0CEFD012800D17B
:1049600010BD0020207000BFFAE71CB500200190A8
:1049700040F22551254802F095FDB0B1234802F0E0
:10498000CFFCC0B20090002301AA6946124800681B
:1049900004F087FE019838B14FF080501D4908603F
:1049A000BFF34F8FBFF36F8F00BF1CBD70B50546BF
:1049B0000E46002400BF0CE000BF4021134802F067
:1049C0005BFD0028F9D0295D104802F0A5FC601CB1
:1049D000C4B2B442F0DB70BD400000202E2E5C4813
:1049E000415244574152455C7372635C7561727405
:1049F0005F61726D2E6300007561727461726D4447
:104A000061746144656C697665727900004C0040A0
:104A10000000024004ED00E000B587B00022012153
:104A20000A2004F099FB514908600846006820B943
:104A30002B224FA156A00CF002FE0121084601F0E6
:104A4000ABFB0121480401F0F0FB0722022155488D
:104A500001F08FF907220321524801F08AF90C2056
:104A6000059002208DF818008DF8190000208DF8AF
:104A70001A0001208DF81B0005A94A4801F0EEF844
:104A80004FF4E13001900020ADF80800ADF80A00C5
:104A9000ADF80C00ADF810000C20ADF80E0001A927
:104AA000414802F086FB012240F225513E4802F0C7
:104AB000BEFC26208DF8000006208DF801000020A5
:104AC0008DF8020001208DF80300684600F0F1FC2B
:104AD0000121354802F0F5FB07B000BD10B50446D2
:104AE00000234FF47A7221462048006804F004FD48
:104AF000012800D110BD0020207000BFFAE71CB5CE
:104B0000002001902848008800F02000B0B126481D
:104B1000001D0088C0B20090002301AA6946134816
:104B2000006804F0BEFD019838B14FF080501F4975
:104B30000860BFF34F8FBFF36F8F00BF1CBD70B510
:104B400005460E46002400BF0CE000BF4021164879
:104B500002F092FC0028F9D0295D134802F0DCFB3A
:104B6000601CC4B2B442F0DB70BD000048000020FD
:104B70002E2E5C48415244574152455C7372635C2F
:104B8000756172745F7379736C696E6B2E6300006C
:104B900075617274736C6B4461746144656C6976A1
:104BA00065727900000002400044004004ED00E01E
:104BB00000B597B00121022001F0EEFA012188042E
:104BC00001F033FB0121480501F0E6FA6F4802F0DD
:104BD00089FA07220B216E4801F0CBF84FF40060F0
:104BE000149002208DF854008DF8550000208DF8A7
:104BF000560001208DF8570014A9654801F02EF8E1
:104C0000644810900020ADF844004FF40050ADF817
:104C10004600C010ADF848000020ADF84C0004205C
:104C2000ADF84A0010A9594802F0C3FA0122402108
:104C3000564802F0F3FB584802F006FD00BF564804
:104C400002F02BFE0028FAD101A802F0C8FD4FF0B7
:104C5000006001904D48001D02905048007803907C
:104C6000002004901A200590002006904FF48060E8
:104C700007900020089009904FF480700A9000027D
:104C80000B9000200C900D900E900F9001A94248BF
:104C900002F07CFD002241491A313F4802F0D7FD65
:104CA00001213D4802F0DFFD01213B4802F0A8FD53
:104CB00027208DF8580008208DF8590000208DF825
:104CC0005A0001208DF85B0016A800F0F2FB0122CB
:104CD00040F224412D4802F0AAFB01212B4802F0AA
:104CE000F0FA17B000BD10B5002440F22441274867
:104CF00002F0D8FB002848D0244800882348001D33
:104D00000088254802F0BFFD00BB0021224802F0C8
:104D100077FD214802F097FDC0F11A00C4B21A20B5
:104D20001D492839C8620846806A40F4002088621C
:104D30001A481A3048630121174802F061FD192C06
:104D400023D116481A300AF025FC1EE00021124833
:104D500002F056FD104802F076FDC0F11A00C4B210
:104D60001A200D492839C8620846806A20F40020BC
:104D700088620A4888630121074802F041FD192C26
:104D800003D106481A300AF005FC10BD0048004067
:104D900000040240A0860100286002407017002035
:104DA00000B587B00121084601F0F6F90121102075
:104DB00001F04CFA07220921304800F0DAFF0722FF
:104DC0000A212E4800F0D5FF4FF4C0600590022064
:104DD0008DF818008DF8190000208DF81A000120B8
:104DE0008DF81B0005A9254800F038FF4FF4E1308D
:104DF00001900020ADF80800ADF80A00ADF80C00F5
:104E0000ADF810000C20ADF80E0001A91C4802F00E
:104E1000D0F9012240F22551194802F008FB252063
:104E20008DF800000A208DF8010000208DF80200A6
:104E300001208DF80300684600F03BFB402110483C
:104E400002F027FB01210E4802F03BFA07B000BD3B
:104E500070B505460E46002400BF0CE000BF40219F
:104E6000074802F009FB0028F9D0295D044802F048
:104E700053FA601CC4B2B442F0DB70BD00000240C3
:104E80000010014000B58BB00121032001F084F92E
:104E90000121062001F0C9F94FF48070099001202A
:104EA0008DF8280000208DF82A008DF82B000320B3
:104EB0008DF8290009A9654800F0D0FE402009902E
:104EC00009A9634800F0CAFE624801F0B9FA6248D5
:104ED00001F0B6FA022206215C4800F04AFF0222E5
:104EE00006215E4800F045FF4020099002208DF821
:104EF000280003208DF8290000208DF82A000120C9
:104F00008DF82B0009A9514800F0A8FE09A95348C3
:104F100000F0A4FE41F63F700790D120ADF81800D4
:104F20000020ADF81A00ADF820008DF8220006A987
:104F3000494801F032FB40F2E73007905320ADF8CA
:104F4000180006A9434801F028FB6020ADF80400D2
:104F50000120ADF806004FF4167003900020ADF864
:104F600010004FF48070ADF8140001A93A4801F028
:104F7000A9FB0020039001A9364801F0A3FB0821FA
:104F8000344801F02CFD0821334801F028FD0121AF
:104F9000304801F06DFB01212F4801F069FB0BB097
:104FA00000BD10B500202E4908600121294801F0FC
:104FB0007DFB0121284801F079FB10BD10B50120CF
:104FC000274908600021234801F070FB0021224896
:104FD00001F06CFB10BD70B506460D46002406F5C9
:104FE000167004B2B4F5B47F02DC4FF4B47404E07C
:104FF000B4F5527F01DB4FF452742146164801F09C
:10500000BAFC281E01DB014600E041420CB2002C34
:1050100001DC002404E040F2E730844200DB044677
:105020000A2C0DDD002D03DA01200E49086002E094
:1050300000200C4908602146064801F09CFC03E072
:105040000021044801F097FC70BD00000000024000
:10505000001002400008004000040040000402402C
:1050600098024242A00240420EB5FDF753F9A82033
:1050700003F056FFFBF7B0FAFBF7DEFAFFF702FF8B
:10508000FDF7BCFBFBF71AFBFBF7C1FD4FF6FF700A
:10509000BD4908801F20BD490880FFF789FDFFF743
:1050A0007FFE0CF0C7FF0DF01EF90CF079FE06F044
:1050B0004FFDB74901220868B6A108F0DCF9B449F0
:1050C00001224868B4A108F0D6F94CE0B3A0182139
:1050D0000B46C822CDE9001096211E20FDF7E7F807
:1050E00028E0B3A018210B46C822CDE90010962174
:1050F0001E20FDF7DCF8C82003F051FFB14800681E
:1051000008B9012000E00020AE4908601F20862376
:10511000DC22962100901420FCF764FEC82003F0E6
:105120003EFFA948D0F89C0208B9012000E0002009
:10513000A449086097A3182296211E200BF024FF93
:105140000028CED1A1A018210B46C822CDE900101D
:1051500096211E20FDF7ABF840F2DC5003F01FFF54
:105160001F20FBF73FFD0CF0BBF80028AED11F203D
:10517000FBF738FD002018219AA20B46CDE900214B
:105180000290502201460CF0B6F90020182197A297
:105190000B46CDE90021029050220146AA200CF0D6
:1051A000AAF90020182193A20B46CDE90021029014
:1051B000642219210CF09FF90020182190A20B46BF
:1051C000CDE90021029019221146BE200CF093F97E
:1051D000002018218BA20B46CDE900210290192254
:1051E00011464FF49B700CF086F90020182186A21E
:1051F0000B46CDE900210290642232210CF07BF9AC
:10520000002018217EA20B46CDE900210290192230
:105210003221BE200CF06FF90020182179A20B4634
:10522000CDE900210290192232214FF49B700CF03D
:1052300062F90020182177A20B46CDE900210290E7
:105240002D224B210CF057F90020182172A20B4699
:10525000CDE9002102902D224B215F200CF04BF96B
:10526000002018216DA20B46CDE9002102903C22BE
:1052700064210CF040F9002018216AA20B46CDE908
:10528000002102903C22642187200CF034F9002098
:10529000182166A20B46CDE9002102903C22642130
:1052A0004FF487700CF027F90020182161A20B46FB
:1052B000CDE90021029050227D210CF01CF9002044
:1052C00018215EA20B46CDE90021029064227D21C7
:1052D000C8200CF010F9002018215AA20B46CDE985
:1052E00000210290642296210CF005F9002018217B
:1052F00056A20B46CDE90021029078229621A020EB
:105300000CF0F9F80020182153A20B46CDE900213A
:1053100002906422AF210CF0EEF80020182150A278
:105320000B46CDE9002102906422AF21B9200CF098
:10533000E2F8002018214CA20B46CDE90021029092
:105340003C22C8210CF0D7F80020182148A20B46B7
:10535000CDE9002102907822C82140F26D100CF0B6
:10536000CAF80020182145A20B46CDE90021029081
:105370003C22E1210CF0BFF80AF062FB0AF0ACF924
:1053800006F026FA0EBD0000180000201A000020CA
:105390003C020020303A0000313A0000466F6E7443
:1053A000205570646174696E672E2E2E0000000017
:1053B000466F6E7420557064617465204661696C37
:1053C000656421009C02434200004342466F6E74B4
:1053D0002055706461746520537563636573732130
:1053E00020000000D7AACBD93A000000D7AACFF2FC
:1053F0003A000000CBD9B6C82020503A0000000087
:10540000493A0000443A0000D7AACFF22020503A8F
:105410000000000046423A004C523A00B5CDCBD9CC
:105420003A000000D6D0CBD93A000000B8DFCBD983
:105430003A000000CEB3B6C83A000000BEADB6C810
:105440003A000000BABDCFF23A000000BBF9D7BC69
:10545000BABDCFF23A000000D0DED5FDBDC73A009C
:10546000C6ABB2EEBDC73A00BDDAB5E33A00000004
:10547000CEBBD6C3E3D0D6B500000000CBD9B6C8AA
:105480003A0000000648804706480047FEE7FEE76E
:10549000FEE7FEE7FEE7FEE7FEE7FEE7FEE7FEE7E4
:1054A000A50400088901000832490143324A11600D
:1054B000704770B5002100230F22C4781CB32E4C16
:1054C000246804F4E064C4F5E064C4F30721C1F186
:1054D0000404E3B20A4144789C40E1B28478144069
:1054E00021430C07210E254C05786155047804F002
:1054F0001F050124AC4005786D11AD0005F1E025D4
:10550000C5F8004109E0047804F01F050124AC400F
:105510001B4D0678761145F8264070BD194A0A40A1
:105520000243154B1B1F1A60704739B1124A121DF6
:1055300012680243104B1B1D1A6006E00E4A121D32
:10554000126882430C4B1B1D1A607047042808D157
:105550004FF0E021096941F004014FF0E0221161B0
:1055600007E04FF0E021096921F004014FF0E0224B
:10557000116170470000FA050CED00E000E400E066
:1055800080E100E080FFFF1F30B943F2DB028100C1
:10559000A1F1C0410A6005E043F2D2028100A1F10D
:1055A000C0410A606FF07042411C8900A1F1C04106
:1055B0000A608100A1F1C041C1F804217047D0E91F
:1055C00001121143C2681143026911434269114338
:1055D00082691143C2691143026A1143426A11434D
:1055E000826A1143C26A1143026B1143026892003E
:1055F000A2F1C0421160816808290BD101688900BD
:10560000A1F1C041096841F0400201688900A1F19F
:10561000C0410A60416B0968426B526841EA02115D
:10562000426B926841EA0221426B928941EA02414F
:10563000426B128A41EA0251426B127D41EA0261D9
:10564000426B926911430268521C9200A2F1C0425F
:105650001160C16AB1F5804F1BD1816B0968826B03
:10566000526841EA0211826B926841EA0221826B20
:10567000128A41EA0251826B127D41EA0261826B19
:105680009269114302689200A2F1C042C2F804116B
:1056900007E06FF0704201688900A1F1C041C1F8D4
:1056A00004217047002101600221416000218160D6
:1056B000C160016141618161C16101624FF480514A
:1056C0004162490081620021C1620163F84941637E
:1056D0008163704751B18200A2F1C042126842F06A
:1056E00001038200A2F1C042136009E08200A2F12E
:1056F000C0421268EF4B1A408300A3F1C0431A6006
:10570000704710280AD118214FF02042116640211D
:1057100051664FF0FC319166D16610E01821E64ADF
:10572000116040214FF02042C2F884104FF0FC314C
:10573000E14A083211604FF02042C2F88C107047E5
:1057400030B5002100220023446844F00804856835
:105750002C43C5682C4305692C43456944EA45241C
:10576000856944EA4531C4692468C5696D6844EABD
:105770000524C5692D8944EA0544C5692D7B44EAA1
:105780000562046A2468056A6D6844EA0524056AAE
:105790002D8944EA0544056A2D7B44EA05630468C3
:1057A000102C05D14FF020442166A266E36608E084
:1057B000C14C21604FF02044C4F88820BE4C0C340A
:1057C000236030BD10210160002141608160C16013
:1057D000016141618161FC21C2691160C26951604E
:1057E000C2699160C269D160026A1160026A516047
:1057F000026A9160026AD160704799B1102808D19D
:105800004FF02042126E42F004024FF020431A661D
:105810001DE0A94A126842F004024FF02043C3F889
:10582000802014E0102809D14FF02042126EA14BC5
:10583000DB1E1A404FF020431A6608E09E4A1268A9
:105840009C4BDB1E1A404FF02043C3F8802070476A
:1058500099B1102808D14FF02042126E42F0400258
:105860004FF020431A661DE0934A126842F040024E
:105870004FF02043C3F8802014E0102809D14FF0E6
:105880002042126E8B4B3F3B1A404FF020431A666A
:1058900008E0894A1268874B3F3B1A404FF020438B
:1058A000C3F88020704701460020102903D14FF033
:1058B0002042506F02E0804A14321068704718206E
:1058C0007D492031086000200906C1F8A4004FF08E
:1058D000FC30794928310860091D0860091D0860FD
:1058E0007047016841F01001426841EA4221826834
:1058F00041EA4231704A20321160C1680968C268C9
:10590000526841EA0221C268128941EA0241C26832
:10591000127B41EA0261684A283211600169096814
:105920000269526841EA02210269128941EA024190
:105930000269127B41EA02615F4A2C3211604169BF
:1059400009684269526841EA02214269128941EAC2
:1059500002414269127B41EA02614FF02042C2F8E3
:10596000B01070470021016041608160FC21C26875
:105970001160C2685160C2689160C268D1600269FA
:10598000116002695160026991600269D1604269E7
:10599000116042695160426991604269D16070470B
:1059A00048B145492031096841F004014FF02042D7
:1059B000C2F8A01009E04049203109683D4AD21ED2
:1059C00011404FF02042C2F8A010704710B5F2B15C
:1059D000102807D14FF020435B6E0B434FF020445B
:1059E000636632E0B0F5807F08D1334B1B1D1B6826
:1059F0000B434FF02044C4F8843026E02E4B243370
:105A00001B680B434FF02044C4F8A4301DE010285D
:105A100007D14FF020435B6E8B434FF02044636609
:105A200013E0B0F5807F08D1234B1B1D1B688B430F
:105A30004FF02044C4F8843007E01F4B24331B6828
:105A40008B434FF02044C4F8A43010BD10B502467B
:105A500000200023102A03D14FF02044636E09E098
:105A6000B2F5807F03D1144C241D236802E0124C50
:105A70002434236803EA01040CB1012000E0002073
:105A800010BD102807D14FF02042526E8A434FF0CC
:105A900020435A6619E0B0F5807F0FD1064A121DE7
:105AA00012688A434FF02043C3F884200DE00000C1
:105AB000685D0108FEFF0F00800000A0234A126805
:105AC0008A434FF02043C3F8A420704770B50246C4
:105AD0000020002300240025102A03D14FF0204687
